{
  "contractName": "BindingContract",
  "abi": [
    {
      "inputs": [],
      "stateMutability": "nonpayable",
      "type": "constructor"
    },
    {
      "inputs": [
        {
          "internalType": "uint64",
          "name": "",
          "type": "uint64"
        }
      ],
      "name": "bindingContracts",
      "outputs": [
        {
          "internalType": "uint64",
          "name": "bindingId",
          "type": "uint64"
        },
        {
          "internalType": "bytes16",
          "name": "name",
          "type": "bytes16"
        },
        {
          "internalType": "uint64",
          "name": "startDate",
          "type": "uint64"
        },
        {
          "internalType": "uint64",
          "name": "endDate",
          "type": "uint64"
        },
        {
          "internalType": "address",
          "name": "municipalityAddress",
          "type": "address"
        }
      ],
      "stateMutability": "view",
      "type": "function",
      "constant": true
    },
    {
      "inputs": [
        {
          "internalType": "uint64",
          "name": "",
          "type": "uint64"
        }
      ],
      "name": "bindingRequests",
      "outputs": [
        {
          "internalType": "uint64",
          "name": "requestId",
          "type": "uint64"
        },
        {
          "internalType": "uint64",
          "name": "companyId",
          "type": "uint64"
        },
        {
          "internalType": "bytes16",
          "name": "fullName",
          "type": "bytes16"
        },
        {
          "internalType": "bytes16",
          "name": "phoneNo",
          "type": "bytes16"
        },
        {
          "internalType": "uint32",
          "name": "price",
          "type": "uint32"
        },
        {
          "internalType": "uint64",
          "name": "bindingId",
          "type": "uint64"
        },
        {
          "internalType": "address",
          "name": "companyAddress",
          "type": "address"
        }
      ],
      "stateMutability": "view",
      "type": "function",
      "constant": true
    },
    {
      "inputs": [
        {
          "internalType": "bytes16",
          "name": "_name",
          "type": "bytes16"
        },
        {
          "internalType": "uint64",
          "name": "_startDate",
          "type": "uint64"
        },
        {
          "internalType": "uint64",
          "name": "_endDate",
          "type": "uint64"
        },
        {
          "internalType": "bytes16[]",
          "name": "_details",
          "type": "bytes16[]"
        },
        {
          "internalType": "uint8[]",
          "name": "_points",
          "type": "uint8[]"
        }
      ],
      "name": "testing",
      "outputs": [
        {
          "internalType": "bool",
          "name": "",
          "type": "bool"
        }
      ],
      "stateMutability": "payable",
      "type": "function",
      "payable": true
    },
    {
      "inputs": [
        {
          "internalType": "bytes16",
          "name": "_name",
          "type": "bytes16"
        },
        {
          "internalType": "uint64",
          "name": "_startDate",
          "type": "uint64"
        },
        {
          "internalType": "uint64",
          "name": "_endDate",
          "type": "uint64"
        },
        {
          "internalType": "bytes16[]",
          "name": "_details",
          "type": "bytes16[]"
        },
        {
          "internalType": "uint8[]",
          "name": "_points",
          "type": "uint8[]"
        }
      ],
      "name": "createBindingContract",
      "outputs": [],
      "stateMutability": "payable",
      "type": "function",
      "payable": true
    },
    {
      "inputs": [],
      "name": "getBindingContractsCount",
      "outputs": [
        {
          "internalType": "uint64",
          "name": "",
          "type": "uint64"
        }
      ],
      "stateMutability": "view",
      "type": "function",
      "constant": true
    },
    {
      "inputs": [
        {
          "internalType": "uint64",
          "name": "bindingId",
          "type": "uint64"
        }
      ],
      "name": "getBindingById",
      "outputs": [
        {
          "components": [
            {
              "internalType": "uint64",
              "name": "bindingId",
              "type": "uint64"
            },
            {
              "internalType": "bytes16",
              "name": "name",
              "type": "bytes16"
            },
            {
              "internalType": "uint64",
              "name": "startDate",
              "type": "uint64"
            },
            {
              "internalType": "uint64",
              "name": "endDate",
              "type": "uint64"
            },
            {
              "internalType": "bytes16[]",
              "name": "details",
              "type": "bytes16[]"
            },
            {
              "internalType": "uint8[]",
              "name": "points",
              "type": "uint8[]"
            },
            {
              "internalType": "address",
              "name": "municipalityAddress",
              "type": "address"
            }
          ],
          "internalType": "struct BindingContract.BindingData",
          "name": "",
          "type": "tuple"
        }
      ],
      "stateMutability": "view",
      "type": "function",
      "constant": true
    },
    {
      "inputs": [
        {
          "internalType": "uint64",
          "name": "bindingId",
          "type": "uint64"
        }
      ],
      "name": "getActiveBinding",
      "outputs": [
        {
          "components": [
            {
              "internalType": "uint64",
              "name": "bindingId",
              "type": "uint64"
            },
            {
              "internalType": "bytes16",
              "name": "name",
              "type": "bytes16"
            },
            {
              "internalType": "uint64",
              "name": "startDate",
              "type": "uint64"
            },
            {
              "internalType": "uint64",
              "name": "endDate",
              "type": "uint64"
            },
            {
              "internalType": "bytes16[]",
              "name": "details",
              "type": "bytes16[]"
            },
            {
              "internalType": "uint8[]",
              "name": "points",
              "type": "uint8[]"
            },
            {
              "internalType": "address",
              "name": "municipalityAddress",
              "type": "address"
            }
          ],
          "internalType": "struct BindingContract.BindingData",
          "name": "",
          "type": "tuple"
        }
      ],
      "stateMutability": "view",
      "type": "function",
      "constant": true
    },
    {
      "inputs": [
        {
          "internalType": "uint64",
          "name": "bindingId",
          "type": "uint64"
        }
      ],
      "name": "getClosedBinding",
      "outputs": [
        {
          "components": [
            {
              "internalType": "uint64",
              "name": "bindingId",
              "type": "uint64"
            },
            {
              "internalType": "bytes16",
              "name": "name",
              "type": "bytes16"
            },
            {
              "internalType": "uint64",
              "name": "startDate",
              "type": "uint64"
            },
            {
              "internalType": "uint64",
              "name": "endDate",
              "type": "uint64"
            },
            {
              "internalType": "bytes16[]",
              "name": "details",
              "type": "bytes16[]"
            },
            {
              "internalType": "uint8[]",
              "name": "points",
              "type": "uint8[]"
            },
            {
              "internalType": "address",
              "name": "municipalityAddress",
              "type": "address"
            }
          ],
          "internalType": "struct BindingContract.BindingData",
          "name": "",
          "type": "tuple"
        }
      ],
      "stateMutability": "view",
      "type": "function",
      "constant": true
    },
    {
      "inputs": [
        {
          "internalType": "uint64",
          "name": "bindingId",
          "type": "uint64"
        }
      ],
      "name": "isActive",
      "outputs": [
        {
          "internalType": "bool",
          "name": "",
          "type": "bool"
        }
      ],
      "stateMutability": "view",
      "type": "function",
      "constant": true
    },
    {
      "inputs": [
        {
          "internalType": "uint64",
          "name": "_companyId",
          "type": "uint64"
        },
        {
          "internalType": "bytes16",
          "name": "_fullName",
          "type": "bytes16"
        },
        {
          "internalType": "bytes16",
          "name": "_phoneNo",
          "type": "bytes16"
        },
        {
          "internalType": "uint32",
          "name": "_price",
          "type": "uint32"
        },
        {
          "internalType": "uint64",
          "name": "_bindingId",
          "type": "uint64"
        },
        {
          "internalType": "bytes16[]",
          "name": "_details",
          "type": "bytes16[]"
        }
      ],
      "name": "requestToBinding",
      "outputs": [],
      "stateMutability": "nonpayable",
      "type": "function"
    },
    {
      "inputs": [
        {
          "internalType": "uint64",
          "name": "_requestId",
          "type": "uint64"
        }
      ],
      "name": "getBindingRequestByRequestId",
      "outputs": [
        {
          "components": [
            {
              "internalType": "uint64",
              "name": "requestId",
              "type": "uint64"
            },
            {
              "internalType": "uint64",
              "name": "companyId",
              "type": "uint64"
            },
            {
              "internalType": "bytes16",
              "name": "fullName",
              "type": "bytes16"
            },
            {
              "internalType": "bytes16",
              "name": "phoneNo",
              "type": "bytes16"
            },
            {
              "internalType": "uint32",
              "name": "price",
              "type": "uint32"
            },
            {
              "internalType": "uint64",
              "name": "bindingId",
              "type": "uint64"
            },
            {
              "internalType": "bytes16[]",
              "name": "details",
              "type": "bytes16[]"
            },
            {
              "internalType": "address",
              "name": "companyAddress",
              "type": "address"
            }
          ],
          "internalType": "struct BindingContract.RequestBinding",
          "name": "",
          "type": "tuple"
        }
      ],
      "stateMutability": "view",
      "type": "function",
      "constant": true
    },
    {
      "inputs": [],
      "name": "getBindingRequestCount",
      "outputs": [
        {
          "internalType": "uint64",
          "name": "",
          "type": "uint64"
        }
      ],
      "stateMutability": "view",
      "type": "function",
      "constant": true
    },
    {
      "inputs": [
        {
          "internalType": "bytes16[]",
          "name": "array",
          "type": "bytes16[]"
        },
        {
          "internalType": "bytes16",
          "name": "variable",
          "type": "bytes16"
        }
      ],
      "name": "searchInArray",
      "outputs": [
        {
          "internalType": "bool",
          "name": "",
          "type": "bool"
        }
      ],
      "stateMutability": "pure",
      "type": "function",
      "constant": true
    },
    {
      "inputs": [
        {
          "internalType": "bytes16[]",
          "name": "array",
          "type": "bytes16[]"
        },
        {
          "internalType": "bytes16",
          "name": "variable",
          "type": "bytes16"
        }
      ],
      "name": "isRepeatedItem",
      "outputs": [
        {
          "internalType": "bool",
          "name": "",
          "type": "bool"
        }
      ],
      "stateMutability": "pure",
      "type": "function",
      "constant": true
    }
  ],
  "bytecode": "0x608060405234801561001057600080fd5b5060008060006101000a81548167ffffffffffffffff021916908367ffffffffffffffff16021790555060008060086101000a81548167ffffffffffffffff021916908367ffffffffffffffff160217905550612c09806100726000396000f3fe6080604052600436106100dd5760003560e01c80633af8029b1161007f578063511eb8c011610059578063511eb8c0146102f45780635b3f14fa14610331578063d3b9207a1461035c578063fb80983914610399576100dd565b80633af8029b1461024d5780633d41976d1461028a5780633d86dea4146102b3576100dd565b80632d829589116100bb5780632d829589146101875780632e8005aa146101b757806334abcac9146101d357806339d13f3014610210576100dd565b80630e9ca501146100e25780631ef1feeb1461010d578063232dd1571461014a575b600080fd5b3480156100ee57600080fd5b506100f76103dc565b6040516101049190611cd8565b60405180910390f35b34801561011957600080fd5b50610134600480360381019061012f9190611d33565b6103f9565b6040516101419190612008565b60405180910390f35b34801561015657600080fd5b50610171600480360381019061016c9190611d33565b61068a565b60405161017e9190612008565b60405180910390f35b6101a1600480360381019061019c919061229e565b61096b565b6040516101ae919061236c565b60405180910390f35b6101d160048036038101906101cc919061229e565b61099b565b005b3480156101df57600080fd5b506101fa60048036038101906101f59190611d33565b610cc1565b604051610207919061236c565b60405180910390f35b34801561021c57600080fd5b5061023760048036038101906102329190611d33565b610dac565b6040516102449190612456565b60405180910390f35b34801561025957600080fd5b50610274600480360381019061026f9190611d33565b611075565b6040516102819190612008565b60405180910390f35b34801561029657600080fd5b506102b160048036038101906102ac91906124a4565b611305565b005b3480156102bf57600080fd5b506102da60048036038101906102d59190611d33565b61174d565b6040516102eb95949392919061256b565b60405180910390f35b34801561030057600080fd5b5061031b600480360381019061031691906125be565b6117ec565b604051610328919061236c565b60405180910390f35b34801561033d57600080fd5b5061034661186e565b6040516103539190611cd8565b60405180910390f35b34801561036857600080fd5b50610383600480360381019061037e91906125be565b61188b565b604051610390919061236c565b60405180910390f35b3480156103a557600080fd5b506103c060048036038101906103bb9190611d33565b61193b565b6040516103d39796959493929190612629565b60405180910390f35b60008060089054906101000a900467ffffffffffffffff16905090565b610401611a03565b610409611a03565b61041283610cc1565b1561068157600160008467ffffffffffffffff1667ffffffffffffffff1681526020019081526020016000206040518060e00160405290816000820160009054906101000a900467ffffffffffffffff1667ffffffffffffffff1667ffffffffffffffff1681526020016000820160089054906101000a900460801b6fffffffffffffffffffffffffffffffff19166fffffffffffffffffffffffffffffffff191681526020016000820160189054906101000a900467ffffffffffffffff1667ffffffffffffffff1667ffffffffffffffff1681526020016001820160009054906101000a900467ffffffffffffffff1667ffffffffffffffff1667ffffffffffffffff168152602001600282018054806020026020016040519081016040528092919081815260200182805480156105a157602002820191906000526020600020906000905b82829054906101000a900460801b6fffffffffffffffffffffffffffffffff191681526020019060100190602082600f0104928301926001038202915080841161055a5790505b505050505081526020016003820180548060200260200160405190810160405280929190818152602001828054801561061f57602002820191906000526020600020906000905b82829054906101000a900460ff1660ff16815260200190600101906020826000010492830192600103820291508084116105e85790505b505050505081526020016004820160009054906101000a900473ffffffffffffffffffffffffffffffffffffffff1673ffffffffffffffffffffffffffffffffffffffff1673ffffffffffffffffffffffffffffffffffffffff168152505090505b80915050919050565b610692611a03565b60008054906101000a900467ffffffffffffffff1667ffffffffffffffff168267ffffffffffffffff1611156106fd576040517f08c379a00000000000000000000000000000000000000000000000000000000081526004016106f4906126f5565b60405180910390fd5b600160008367ffffffffffffffff1667ffffffffffffffff1681526020019081526020016000206040518060e00160405290816000820160009054906101000a900467ffffffffffffffff1667ffffffffffffffff1667ffffffffffffffff1681526020016000820160089054906101000a900460801b6fffffffffffffffffffffffffffffffff19166fffffffffffffffffffffffffffffffff191681526020016000820160189054906101000a900467ffffffffffffffff1667ffffffffffffffff1667ffffffffffffffff1681526020016001820160009054906101000a900467ffffffffffffffff1667ffffffffffffffff1667ffffffffffffffff1681526020016002820180548060200260200160405190810160405280929190818152602001828054801561088757602002820191906000526020600020906000905b82829054906101000a900460801b6fffffffffffffffffffffffffffffffff191681526020019060100190602082600f010492830192600103820291508084116108405790505b505050505081526020016003820180548060200260200160405190810160405280929190818152602001828054801561090557602002820191906000526020600020906000905b82829054906101000a900460ff1660ff16815260200190600101906020826000010492830192600103820291508084116108ce5790505b505050505081526020016004820160009054906101000a900473ffffffffffffffffffffffffffffffffffffffff1673ffffffffffffffffffffffffffffffffffffffff1673ffffffffffffffffffffffffffffffffffffffff16815250509050919050565b600082518251141561098d57610984868686868661099b565b60019050610992565b600090505b95945050505050565b80518251146109df576040517f08c379a00000000000000000000000000000000000000000000000000000000081526004016109d690612761565b60405180910390fd5b60005b8251811015610a6257610a0f83848381518110610a0257610a01612781565b5b602002602001015161188b565b15610a4f576040517f08c379a0000000000000000000000000000000000000000000000000000000008152600401610a4690612822565b60405180910390fd5b8080610a5a9061287b565b9150506109e2565b5060008081819054906101000a900467ffffffffffffffff1680929190610a88906128c4565b91906101000a81548167ffffffffffffffff021916908367ffffffffffffffff160217905550506040518060e0016040528060008054906101000a900467ffffffffffffffff1667ffffffffffffffff168152602001866fffffffffffffffffffffffffffffffff191681526020018567ffffffffffffffff1681526020018467ffffffffffffffff1681526020018381526020018281526020013373ffffffffffffffffffffffffffffffffffffffff16815250600160008060009054906101000a900467ffffffffffffffff1667ffffffffffffffff1667ffffffffffffffff16815260200190815260200160002060008201518160000160006101000a81548167ffffffffffffffff021916908367ffffffffffffffff16021790555060208201518160000160086101000a8154816fffffffffffffffffffffffffffffffff021916908360801c021790555060408201518160000160186101000a81548167ffffffffffffffff021916908367ffffffffffffffff16021790555060608201518160010160006101000a81548167ffffffffffffffff021916908367ffffffffffffffff1602179055506080820151816002019080519060200190610c52929190611a87565b5060a0820151816003019080519060200190610c6f929190611b4c565b5060c08201518160040160006101000a81548173ffffffffffffffffffffffffffffffffffffffff021916908373ffffffffffffffffffffffffffffffffffffffff1602179055509050505050505050565b60008060009054906101000a900467ffffffffffffffff1667ffffffffffffffff168267ffffffffffffffff1611610da25742600160008467ffffffffffffffff1667ffffffffffffffff16815260200190815260200160002060010160009054906101000a900467ffffffffffffffff1667ffffffffffffffff1610158015610d93575042600160008467ffffffffffffffff1667ffffffffffffffff16815260200190815260200160002060000160189054906101000a900467ffffffffffffffff1667ffffffffffffffff1611155b15610da15760019050610da7565b5b600090505b919050565b610db4611bf3565b600060089054906101000a900467ffffffffffffffff1667ffffffffffffffff168267ffffffffffffffff161115610e21576040517f08c379a0000000000000000000000000000000000000000000000000000000008152600401610e1890612941565b60405180910390fd5b600260008367ffffffffffffffff1667ffffffffffffffff168152602001908152602001600020604051806101000160405290816000820160009054906101000a900467ffffffffffffffff1667ffffffffffffffff1667ffffffffffffffff1681526020016000820160089054906101000a900467ffffffffffffffff1667ffffffffffffffff1667ffffffffffffffff1681526020016000820160109054906101000a900460801b6fffffffffffffffffffffffffffffffff19166fffffffffffffffffffffffffffffffff191681526020016001820160009054906101000a900460801b6fffffffffffffffffffffffffffffffff19166fffffffffffffffffffffffffffffffff191681526020016001820160109054906101000a900463ffffffff1663ffffffff1663ffffffff1681526020016001820160149054906101000a900467ffffffffffffffff1667ffffffffffffffff1667ffffffffffffffff1681526020016002820180548060200260200160405190810160405280929190818152602001828054801561100f57602002820191906000526020600020906000905b82829054906101000a900460801b6fffffffffffffffffffffffffffffffff191681526020019060100190602082600f01049283019260010382029150808411610fc85790505b505050505081526020016003820160009054906101000a900473ffffffffffffffffffffffffffffffffffffffff1673ffffffffffffffffffffffffffffffffffffffff1673ffffffffffffffffffffffffffffffffffffffff16815250509050919050565b61107d611a03565b611085611a03565b61108e83610cc1565b6112fc57600160008467ffffffffffffffff1667ffffffffffffffff1681526020019081526020016000206040518060e00160405290816000820160009054906101000a900467ffffffffffffffff1667ffffffffffffffff1667ffffffffffffffff1681526020016000820160089054906101000a900460801b6fffffffffffffffffffffffffffffffff19166fffffffffffffffffffffffffffffffff191681526020016000820160189054906101000a900467ffffffffffffffff1667ffffffffffffffff1667ffffffffffffffff1681526020016001820160009054906101000a900467ffffffffffffffff1667ffffffffffffffff1667ffffffffffffffff1681526020016002820180548060200260200160405190810160405280929190818152602001828054801561121c57602002820191906000526020600020906000905b82829054906101000a900460801b6fffffffffffffffffffffffffffffffff191681526020019060100190602082600f010492830192600103820291508084116111d55790505b505050505081526020016003820180548060200260200160405190810160405280929190818152602001828054801561129a57602002820191906000526020600020906000905b82829054906101000a900460ff1660ff16815260200190600101906020826000010492830192600103820291508084116112635790505b505050505081526020016004820160009054906101000a900473ffffffffffffffffffffffffffffffffffffffff1673ffffffffffffffffffffffffffffffffffffffff1673ffffffffffffffffffffffffffffffffffffffff168152505090505b80915050919050565b61130e82610cc1565b61134d576040517f08c379a0000000000000000000000000000000000000000000000000000000008152600401611344906129d3565b60405180910390fd5b60006113588361068a565b90506000816080015190508051835111156113a8576040517f08c379a000000000000000000000000000000000000000000000000000000000815260040161139f90612a65565b60405180910390fd5b60005b835181101561148e576113d8828583815181106113cb576113ca612781565b5b60200260200101516117ec565b611417576040517f08c379a000000000000000000000000000000000000000000000000000000000815260040161140e90612af7565b60405180910390fd5b61143b8485838151811061142e5761142d612781565b5b602002602001015161188b565b1561147b576040517f08c379a000000000000000000000000000000000000000000000000000000000815260040161147290612b89565b60405180910390fd5b80806114869061287b565b9150506113ab565b506000600881819054906101000a900467ffffffffffffffff16809291906114b5906128c4565b91906101000a81548167ffffffffffffffff021916908367ffffffffffffffff16021790555050604051806101000160405280600060089054906101000a900467ffffffffffffffff1667ffffffffffffffff1681526020018967ffffffffffffffff168152602001886fffffffffffffffffffffffffffffffff19168152602001876fffffffffffffffffffffffffffffffff191681526020018663ffffffff1681526020018567ffffffffffffffff1681526020018481526020013373ffffffffffffffffffffffffffffffffffffffff16815250600260008060089054906101000a900467ffffffffffffffff1667ffffffffffffffff1667ffffffffffffffff16815260200190815260200160002060008201518160000160006101000a81548167ffffffffffffffff021916908367ffffffffffffffff16021790555060208201518160000160086101000a81548167ffffffffffffffff021916908367ffffffffffffffff16021790555060408201518160000160106101000a8154816fffffffffffffffffffffffffffffffff021916908360801c021790555060608201518160010160006101000a8154816fffffffffffffffffffffffffffffffff021916908360801c021790555060808201518160010160106101000a81548163ffffffff021916908363ffffffff16021790555060a08201518160010160146101000a81548167ffffffffffffffff021916908367ffffffffffffffff16021790555060c08201518160020190805190602001906116f8929190611a87565b5060e08201518160030160006101000a81548173ffffffffffffffffffffffffffffffffffffffff021916908373ffffffffffffffffffffffffffffffffffffffff1602179055509050505050505050505050565b60016020528060005260406000206000915090508060000160009054906101000a900467ffffffffffffffff16908060000160089054906101000a900460801b908060000160189054906101000a900467ffffffffffffffff16908060010160009054906101000a900467ffffffffffffffff16908060040160009054906101000a900473ffffffffffffffffffffffffffffffffffffffff16905085565b600080600090505b835181101561186257826fffffffffffffffffffffffffffffffff191684828151811061182457611823612781565b5b60200260200101516fffffffffffffffffffffffffffffffff1916141561184f576001915050611868565b808061185a9061287b565b9150506117f4565b50600090505b92915050565b60008060009054906101000a900467ffffffffffffffff16905090565b6000806000905060005b845181101561191857836fffffffffffffffffffffffffffffffff19168582815181106118c5576118c4612781565b5b60200260200101516fffffffffffffffffffffffffffffffff191614156118f55781806118f190612ba9565b9250505b60028260ff161061190557611918565b80806119109061287b565b915050611895565b5060018160ff16141561192f576000915050611935565b60019150505b92915050565b60026020528060005260406000206000915090508060000160009054906101000a900467ffffffffffffffff16908060000160089054906101000a900467ffffffffffffffff16908060000160109054906101000a900460801b908060010160009054906101000a900460801b908060010160109054906101000a900463ffffffff16908060010160149054906101000a900467ffffffffffffffff16908060030160009054906101000a900473ffffffffffffffffffffffffffffffffffffffff16905087565b6040518060e00160405280600067ffffffffffffffff16815260200160006fffffffffffffffffffffffffffffffff19168152602001600067ffffffffffffffff168152602001600067ffffffffffffffff1681526020016060815260200160608152602001600073ffffffffffffffffffffffffffffffffffffffff1681525090565b82805482825590600052602060002090600101600290048101928215611b3b5791602002820160005b83821115611afd57835183826101000a8154816fffffffffffffffffffffffffffffffff021916908360801c02179055509260200192601001602081600f01049283019260010302611ab0565b8015611b395782816101000a8154906fffffffffffffffffffffffffffffffff0219169055601001602081600f01049283019260010302611afd565b505b509050611b489190611c98565b5090565b82805482825590600052602060002090601f01602090048101928215611be25791602002820160005b83821115611bb357835183826101000a81548160ff021916908360ff1602179055509260200192600101602081600001049283019260010302611b75565b8015611be05782816101000a81549060ff0219169055600101602081600001049283019260010302611bb3565b505b509050611bef9190611c98565b5090565b604051806101000160405280600067ffffffffffffffff168152602001600067ffffffffffffffff16815260200160006fffffffffffffffffffffffffffffffff1916815260200160006fffffffffffffffffffffffffffffffff19168152602001600063ffffffff168152602001600067ffffffffffffffff16815260200160608152602001600073ffffffffffffffffffffffffffffffffffffffff1681525090565b5b80821115611cb1576000816000905550600101611c99565b5090565b600067ffffffffffffffff82169050919050565b611cd281611cb5565b82525050565b6000602082019050611ced6000830184611cc9565b92915050565b6000604051905090565b600080fd5b600080fd5b611d1081611cb5565b8114611d1b57600080fd5b50565b600081359050611d2d81611d07565b92915050565b600060208284031215611d4957611d48611cfd565b5b6000611d5784828501611d1e565b91505092915050565b611d6981611cb5565b82525050565b60007fffffffffffffffffffffffffffffffff0000000000000000000000000000000082169050919050565b611da481611d6f565b82525050565b600081519050919050565b600082825260208201905092915050565b6000819050602082019050919050565b6000611de28383611d9b565b60208301905092915050565b6000602082019050919050565b6000611e0682611daa565b611e108185611db5565b9350611e1b83611dc6565b8060005b83811015611e4c578151611e338882611dd6565b9750611e3e83611dee565b925050600181019050611e1f565b5085935050505092915050565b600081519050919050565b600082825260208201905092915050565b6000819050602082019050919050565b600060ff82169050919050565b611e9b81611e85565b82525050565b6000611ead8383611e92565b60208301905092915050565b6000602082019050919050565b6000611ed182611e59565b611edb8185611e64565b9350611ee683611e75565b8060005b83811015611f17578151611efe8882611ea1565b9750611f0983611eb9565b925050600181019050611eea565b5085935050505092915050565b600073ffffffffffffffffffffffffffffffffffffffff82169050919050565b6000611f4f82611f24565b9050919050565b611f5f81611f44565b82525050565b600060e083016000830151611f7d6000860182611d60565b506020830151611f906020860182611d9b565b506040830151611fa36040860182611d60565b506060830151611fb66060860182611d60565b5060808301518482036080860152611fce8282611dfb565b91505060a083015184820360a0860152611fe88282611ec6565b91505060c0830151611ffd60c0860182611f56565b508091505092915050565b600060208201905081810360008301526120228184611f65565b905092915050565b61203381611d6f565b811461203e57600080fd5b50565b6000813590506120508161202a565b92915050565b600080fd5b6000601f19601f8301169050919050565b7f4e487b7100000000000000000000000000000000000000000000000000000000600052604160045260246000fd5b6120a48261205b565b810181811067ffffffffffffffff821117156120c3576120c261206c565b5b80604052505050565b60006120d6611cf3565b90506120e2828261209b565b919050565b600067ffffffffffffffff8211156121025761210161206c565b5b602082029050602081019050919050565b600080fd5b600061212b612126846120e7565b6120cc565b9050808382526020820190506020840283018581111561214e5761214d612113565b5b835b8181101561217757806121638882612041565b845260208401935050602081019050612150565b5050509392505050565b600082601f83011261219657612195612056565b5b81356121a6848260208601612118565b91505092915050565b600067ffffffffffffffff8211156121ca576121c961206c565b5b602082029050602081019050919050565b6121e481611e85565b81146121ef57600080fd5b50565b600081359050612201816121db565b92915050565b600061221a612215846121af565b6120cc565b9050808382526020820190506020840283018581111561223d5761223c612113565b5b835b81811015612266578061225288826121f2565b84526020840193505060208101905061223f565b5050509392505050565b600082601f83011261228557612284612056565b5b8135612295848260208601612207565b91505092915050565b600080600080600060a086880312156122ba576122b9611cfd565b5b60006122c888828901612041565b95505060206122d988828901611d1e565b94505060406122ea88828901611d1e565b935050606086013567ffffffffffffffff81111561230b5761230a611d02565b5b61231788828901612181565b925050608086013567ffffffffffffffff81111561233857612337611d02565b5b61234488828901612270565b9150509295509295909350565b60008115159050919050565b61236681612351565b82525050565b6000602082019050612381600083018461235d565b92915050565b600063ffffffff82169050919050565b6123a081612387565b82525050565b6000610100830160008301516123bf6000860182611d60565b5060208301516123d26020860182611d60565b5060408301516123e56040860182611d9b565b5060608301516123f86060860182611d9b565b50608083015161240b6080860182612397565b5060a083015161241e60a0860182611d60565b5060c083015184820360c08601526124368282611dfb565b91505060e083015161244b60e0860182611f56565b508091505092915050565b6000602082019050818103600083015261247081846123a6565b905092915050565b61248181612387565b811461248c57600080fd5b50565b60008135905061249e81612478565b92915050565b60008060008060008060c087890312156124c1576124c0611cfd565b5b60006124cf89828a01611d1e565b96505060206124e089828a01612041565b95505060406124f189828a01612041565b945050606061250289828a0161248f565b935050608061251389828a01611d1e565b92505060a087013567ffffffffffffffff81111561253457612533611d02565b5b61254089828a01612181565b9150509295509295509295565b61255681611d6f565b82525050565b61256581611f44565b82525050565b600060a0820190506125806000830188611cc9565b61258d602083018761254d565b61259a6040830186611cc9565b6125a76060830185611cc9565b6125b4608083018461255c565b9695505050505050565b600080604083850312156125d5576125d4611cfd565b5b600083013567ffffffffffffffff8111156125f3576125f2611d02565b5b6125ff85828601612181565b925050602061261085828601612041565b9150509250929050565b61262381612387565b82525050565b600060e08201905061263e600083018a611cc9565b61264b6020830189611cc9565b612658604083018861254d565b612665606083018761254d565b612672608083018661261a565b61267f60a0830185611cc9565b61268c60c083018461255c565b98975050505050505050565b600082825260208201905092915050565b7f6572726f7220696e2062696e64696e6720696400000000000000000000000000600082015250565b60006126df601383612698565b91506126ea826126a9565b602082019050919050565b6000602082019050818103600083015261270e816126d2565b9050919050565b7f706f696e7473206e6f7420657175616c2064657461696c730000000000000000600082015250565b600061274b601883612698565b915061275682612715565b602082019050919050565b6000602082019050818103600083015261277a8161273e565b9050919050565b7f4e487b7100000000000000000000000000000000000000000000000000000000600052603260045260246000fd5b7f5468657265206172652073696d696c6172206974656d7320696e20646574616960008201527f6c73000000000000000000000000000000000000000000000000000000000000602082015250565b600061280c602283612698565b9150612817826127b0565b604082019050919050565b6000602082019050818103600083015261283b816127ff565b9050919050565b7f4e487b7100000000000000000000000000000000000000000000000000000000600052601160045260246000fd5b6000819050919050565b600061288682612871565b91507fffffffffffffffffffffffffffffffffffffffffffffffffffffffffffffffff8214156128b9576128b8612842565b5b600182019050919050565b60006128cf82611cb5565b915067ffffffffffffffff8214156128ea576128e9612842565b5b600182019050919050565b7f696e76616c696420726571756573742069640000000000000000000000000000600082015250565b600061292b601283612698565b9150612936826128f5565b602082019050919050565b6000602082019050818103600083015261295a8161291e565b9050919050565b7f746869732062696e64696e6720636f6e7472616374206e6f742061637469766560008201527f206f722062696e64696e67206964206e6f742076616c69640000000000000000602082015250565b60006129bd603883612698565b91506129c882612961565b604082019050919050565b600060208201905081810360008301526129ec816129b0565b9050919050565b7f696e76616c69642064657461696c73202c20746f6f206d75636820646574616960008201527f6c73200000000000000000000000000000000000000000000000000000000000602082015250565b6000612a4f602383612698565b9150612a5a826129f3565b604082019050919050565b60006020820190508181036000830152612a7e81612a42565b9050919050565b7f696e76616c696420696e2064657461696c73202864657461696c73206974656d60008201527f206e6f7420666f756e6429000000000000000000000000000000000000000000602082015250565b6000612ae1602b83612698565b9150612aec82612a85565b604082019050919050565b60006020820190508181036000830152612b1081612ad4565b9050919050565b7f696e76616c696420696e2064657461696c732028726570656174696e6720656c60008201527f656d656e74290000000000000000000000000000000000000000000000000000602082015250565b6000612b73602683612698565b9150612b7e82612b17565b604082019050919050565b60006020820190508181036000830152612ba281612b66565b9050919050565b6000612bb482611e85565b915060ff821415612bc857612bc7612842565b5b60018201905091905056fea26469706673582212204bc5a4e2c77ff988838115687fa1f5b0fff497c540409da35385b23134cd762f64736f6c634300080c0033",
  "immutableReferences": {},
  "source": "// SPDX-License-Identifier: MIT\npragma solidity >=0.4.22 <0.9.0;\n// bytes8 = 8 char , bytes16 = 16 char , bytes32 = 32 char ...ect\n// uint8 = 0-255 ,\ncontract BindingContract {\n    struct BindingData {\n        uint64 bindingId;\n        bytes16 name;\n        uint64 startDate;\n        uint64 endDate;\n        bytes16[] details;\n        uint8[] points;\n        address municipalityAddress;\n    }\n\n    uint64 bindingContractCount;\n    uint64 bindingRequestsCount;\n\n    constructor() {\n        bindingContractCount = 0;\n        bindingRequestsCount = 0;\n\n    }\n\n    mapping(uint64 => BindingData) public bindingContracts;\n\n\n    function testing(\n        bytes16 _name,\n        uint64 _startDate,\n        uint64 _endDate,\n        bytes16[] memory _details,\n        uint8[] memory _points) public payable returns (bool){\n        if (_points.length == _details.length) {\n            createBindingContract(_name,\n                _startDate,\n                _endDate,\n                _details,\n                _points);\n            return true;\n        }\n        return false;\n    }\n\n    function createBindingContract(\n        bytes16 _name,\n        uint64 _startDate,\n        uint64 _endDate,\n        bytes16[] memory _details,\n        uint8[] memory _points\n    ) public payable {\n        require((_details.length == _points.length), \"points not equal details\");\n        for (uint256 i = 0; i < _details.length; i++) {\n            require(!isRepeatedItem(_details, _details[i]), \"There are similar items in details\");\n        }\n        bindingContractCount++;\n        bindingContracts[bindingContractCount] = BindingData(\n            bindingContractCount,\n            _name,\n            _startDate,\n            _endDate,\n            _details,\n            _points,\n            msg.sender\n        );\n\n    }\n\n    function getBindingContractsCount() public view returns (uint64) {\n        return bindingContractCount;\n    }\n\n    function getBindingById(uint64 bindingId)\n    public\n    view\n    returns (BindingData memory)\n    {\n        require(bindingId <= bindingContractCount, \"error in binding id\");\n        return bindingContracts[bindingId];\n    }\n\n\n    function getActiveBinding(uint64 bindingId) public view returns (BindingData memory) {\n        BindingData memory _bindingData;\n\n        if (isActive(bindingId)) {\n            _bindingData = bindingContracts[bindingId];\n        }\n        return _bindingData;\n    }\n\n    function getClosedBinding(uint64 bindingId) public view returns (BindingData memory) {\n        BindingData memory _bindingData;\n        if (!isActive(bindingId)) {\n            _bindingData = bindingContracts[bindingId];\n        }\n        return _bindingData;\n    }\n\n\n    function isActive(uint64 bindingId) public view returns (bool) {\n        if (bindingId <= bindingContractCount) {\n            if (\n                bindingContracts[bindingId].endDate >= block.timestamp\n                && bindingContracts[bindingId].startDate <= block.timestamp\n            ) {\n                return true;\n            }\n        }\n\n\n        return false;\n    }\n    //-*-*-*-*--*-*-*-*--*-*-*-*--*-*-*-*--*-*-*-*--*-*-*-*--*-*-*-*--*-*-*-*--*-*-*-*--*-*-*-*--*-*-*-*--*-*-*-*--*-*-*-*--*-*-*-*-\n    struct RequestBinding {\n        uint64 requestId;\n        uint64 companyId;\n        bytes16 fullName;\n        bytes16 phoneNo;\n        uint32 price;\n        uint64 bindingId;\n        bytes16 [] details;\n        address companyAddress;\n    }\n\n\n    mapping(uint64 => RequestBinding) public bindingRequests;\n    //        uint64 requestId;\n    //        uint64 companyId;\n    //        bytes16 fullName;\n    //        bytes16 phoneNo;\n    //        uint32 price;\n    //        uint64 bindingId;\n    //        bytes16 [] details;\n    //        address companyAddress;\n    function requestToBinding(\n        uint64 _companyId,\n        bytes16 _fullName,\n        bytes16 _phoneNo,\n        uint32 _price,\n        uint64 _bindingId,\n        bytes16 [] memory _details\n    ) public {\n        require(isActive(_bindingId), \"this binding contract not active or binding id not valid\");\n        BindingData memory _bindingData = getBindingById(_bindingId);\n        bytes16 [] memory _bindingDetails = _bindingData.details;\n        require(_details.length <= _bindingDetails.length, \"invalid details , too much details \");\n        for (uint256 i = 0; i < _details.length; i++) {\n            require(searchInArray(_bindingDetails, _details[i]), \"invalid in details (details item not found)\");\n            require(!isRepeatedItem(_details, _details[i]), \"invalid in details (repeating element)\");\n        }\n\n        //      \n        bindingRequestsCount++;\n        bindingRequests[bindingRequestsCount] = RequestBinding(\n            bindingRequestsCount,\n            _companyId,\n            _fullName,\n            _phoneNo,\n            _price,\n            _bindingId,\n            _details,\n            msg.sender\n        );\n    }\n\n    function getBindingRequestByRequestId(uint64 _requestId)\n    public\n    view\n    returns (RequestBinding memory)\n    {\n        require(_requestId <= bindingRequestsCount, \"invalid request id\");\n        return bindingRequests[_requestId];\n    }\n\n    function getBindingRequestCount() public view returns (uint64) {\n        return bindingRequestsCount;\n    }\n\n    function searchInArray(bytes16 [] memory array, bytes16 variable) public pure returns (bool){\n        for (uint i = 0; i < array.length; i++) {\n            if (array[i] == variable)\n                return true;\n        }\n        return false;\n    }\n\n    function isRepeatedItem(bytes16 [] memory array, bytes16 variable) public pure returns (bool){\n        uint8 count = 0;\n        for (uint i = 0; i < array.length; i++) {\n            if (array[i] == variable)\n                count++;\n            if (count >= 2)\n                break;\n        }\n        if (count == 1)\n            return false;\n        return true;\n    }\n}\n",
  "sourcePath": "/Users/ahmed/Desktop/solidity/contract_1/contracts/BindingContract.sol",
  "compiler": {
    "name": "solc",
    "version": "0.8.12+commit.f00d7308.Emscripten.clang"
  },
  "schemaVersion": "3.4.7",
  "updatedAt": "2022-05-21T11:47:04.180Z",
  "networkType": "ethereum",
  "devdoc": {
    "kind": "dev",
    "methods": {},
    "version": 1
  },
  "userdoc": {
    "kind": "user",
    "methods": {},
    "version": 1
  }
}