{
  "contractName": "BindingContract",
  "abi": [
    {
      "inputs": [],
      "stateMutability": "nonpayable",
      "type": "constructor"
    },
    {
      "inputs": [
        {
          "internalType": "uint64",
          "name": "",
          "type": "uint64"
        }
      ],
      "name": "bindingContracts",
      "outputs": [
        {
          "internalType": "uint64",
          "name": "bindingId",
          "type": "uint64"
        },
        {
          "internalType": "bytes16",
          "name": "name",
          "type": "bytes16"
        },
        {
          "internalType": "uint64",
          "name": "startDate",
          "type": "uint64"
        },
        {
          "internalType": "uint64",
          "name": "endDate",
          "type": "uint64"
        },
        {
          "internalType": "address",
          "name": "municipalityAddress",
          "type": "address"
        },
        {
          "internalType": "bool",
          "name": "isCanceled",
          "type": "bool"
        },
        {
          "internalType": "bool",
          "name": "isOpened",
          "type": "bool"
        },
        {
          "internalType": "uint64",
          "name": "_winnerId",
          "type": "uint64"
        }
      ],
      "stateMutability": "view",
      "type": "function",
      "constant": true
    },
    {
      "inputs": [
        {
          "internalType": "uint64",
          "name": "",
          "type": "uint64"
        }
      ],
      "name": "bindingRequests",
      "outputs": [
        {
          "internalType": "uint64",
          "name": "requestId",
          "type": "uint64"
        },
        {
          "internalType": "uint64",
          "name": "companyId",
          "type": "uint64"
        },
        {
          "internalType": "bytes16",
          "name": "fullName",
          "type": "bytes16"
        },
        {
          "internalType": "bytes16",
          "name": "phoneNo",
          "type": "bytes16"
        },
        {
          "internalType": "uint32",
          "name": "price",
          "type": "uint32"
        },
        {
          "internalType": "uint64",
          "name": "bindingId",
          "type": "uint64"
        },
        {
          "internalType": "address",
          "name": "companyAddress",
          "type": "address"
        },
        {
          "internalType": "bool",
          "name": "isWinner",
          "type": "bool"
        }
      ],
      "stateMutability": "view",
      "type": "function",
      "constant": true
    },
    {
      "inputs": [
        {
          "internalType": "address",
          "name": "",
          "type": "address"
        }
      ],
      "name": "company",
      "outputs": [
        {
          "internalType": "uint64",
          "name": "companyId",
          "type": "uint64"
        },
        {
          "internalType": "address",
          "name": "companyAddress",
          "type": "address"
        },
        {
          "internalType": "bytes16",
          "name": "name",
          "type": "bytes16"
        },
        {
          "internalType": "bytes16",
          "name": "phoneNo",
          "type": "bytes16"
        },
        {
          "internalType": "bytes16",
          "name": "specification",
          "type": "bytes16"
        },
        {
          "internalType": "bytes16",
          "name": "password",
          "type": "bytes16"
        }
      ],
      "stateMutability": "view",
      "type": "function",
      "constant": true
    },
    {
      "inputs": [
        {
          "internalType": "address",
          "name": "",
          "type": "address"
        }
      ],
      "name": "municipality",
      "outputs": [
        {
          "internalType": "uint64",
          "name": "municipalityId",
          "type": "uint64"
        },
        {
          "internalType": "address",
          "name": "municipalityAddress",
          "type": "address"
        },
        {
          "internalType": "bytes16",
          "name": "name",
          "type": "bytes16"
        },
        {
          "internalType": "bytes16",
          "name": "phoneNo",
          "type": "bytes16"
        },
        {
          "internalType": "bytes16",
          "name": "password",
          "type": "bytes16"
        }
      ],
      "stateMutability": "view",
      "type": "function",
      "constant": true
    },
    {
      "inputs": [
        {
          "internalType": "uint64",
          "name": "_companyId",
          "type": "uint64"
        },
        {
          "internalType": "bytes16",
          "name": "_name",
          "type": "bytes16"
        },
        {
          "internalType": "bytes16",
          "name": "_phoneNo",
          "type": "bytes16"
        },
        {
          "internalType": "bytes16",
          "name": "_specification",
          "type": "bytes16"
        },
        {
          "internalType": "bytes16",
          "name": "_password",
          "type": "bytes16"
        }
      ],
      "name": "signUpCompany",
      "outputs": [
        {
          "internalType": "bool",
          "name": "",
          "type": "bool"
        }
      ],
      "stateMutability": "payable",
      "type": "function",
      "payable": true
    },
    {
      "inputs": [
        {
          "internalType": "uint64",
          "name": "_municipalityId",
          "type": "uint64"
        },
        {
          "internalType": "bytes16",
          "name": "_name",
          "type": "bytes16"
        },
        {
          "internalType": "bytes16",
          "name": "_phoneNo",
          "type": "bytes16"
        },
        {
          "internalType": "bytes16",
          "name": "_password",
          "type": "bytes16"
        }
      ],
      "name": "signUpMunicipality",
      "outputs": [
        {
          "internalType": "bool",
          "name": "",
          "type": "bool"
        }
      ],
      "stateMutability": "payable",
      "type": "function",
      "payable": true
    },
    {
      "inputs": [
        {
          "internalType": "bytes16",
          "name": "password",
          "type": "bytes16"
        }
      ],
      "name": "loginCompany",
      "outputs": [
        {
          "internalType": "bool",
          "name": "",
          "type": "bool"
        }
      ],
      "stateMutability": "view",
      "type": "function",
      "constant": true
    },
    {
      "inputs": [
        {
          "internalType": "bytes16",
          "name": "password",
          "type": "bytes16"
        }
      ],
      "name": "loginMunicipality",
      "outputs": [
        {
          "internalType": "bool",
          "name": "",
          "type": "bool"
        }
      ],
      "stateMutability": "view",
      "type": "function",
      "constant": true
    },
    {
      "inputs": [
        {
          "internalType": "bytes16",
          "name": "_name",
          "type": "bytes16"
        },
        {
          "internalType": "uint64",
          "name": "_startDate",
          "type": "uint64"
        },
        {
          "internalType": "uint64",
          "name": "_endDate",
          "type": "uint64"
        },
        {
          "internalType": "bytes16[]",
          "name": "_details",
          "type": "bytes16[]"
        },
        {
          "internalType": "uint8[]",
          "name": "_points",
          "type": "uint8[]"
        },
        {
          "internalType": "bytes16",
          "name": "password",
          "type": "bytes16"
        }
      ],
      "name": "createBindingContract",
      "outputs": [],
      "stateMutability": "payable",
      "type": "function",
      "payable": true
    },
    {
      "inputs": [],
      "name": "getBindingContractsCount",
      "outputs": [
        {
          "internalType": "uint64",
          "name": "",
          "type": "uint64"
        }
      ],
      "stateMutability": "view",
      "type": "function",
      "constant": true
    },
    {
      "inputs": [
        {
          "internalType": "uint64",
          "name": "bindingId",
          "type": "uint64"
        }
      ],
      "name": "getBindingById",
      "outputs": [
        {
          "components": [
            {
              "internalType": "uint64",
              "name": "bindingId",
              "type": "uint64"
            },
            {
              "internalType": "bytes16",
              "name": "name",
              "type": "bytes16"
            },
            {
              "internalType": "uint64",
              "name": "startDate",
              "type": "uint64"
            },
            {
              "internalType": "uint64",
              "name": "endDate",
              "type": "uint64"
            },
            {
              "internalType": "bytes16[]",
              "name": "details",
              "type": "bytes16[]"
            },
            {
              "internalType": "uint8[]",
              "name": "points",
              "type": "uint8[]"
            },
            {
              "internalType": "address",
              "name": "municipalityAddress",
              "type": "address"
            },
            {
              "internalType": "bool",
              "name": "isCanceled",
              "type": "bool"
            },
            {
              "internalType": "bool",
              "name": "isOpened",
              "type": "bool"
            },
            {
              "internalType": "uint64",
              "name": "_winnerId",
              "type": "uint64"
            }
          ],
          "internalType": "struct BindingContract.BindingData",
          "name": "",
          "type": "tuple"
        }
      ],
      "stateMutability": "view",
      "type": "function",
      "constant": true
    },
    {
      "inputs": [],
      "name": "getActiveBindingIds",
      "outputs": [
        {
          "internalType": "uint64[]",
          "name": "",
          "type": "uint64[]"
        }
      ],
      "stateMutability": "view",
      "type": "function",
      "constant": true
    },
    {
      "inputs": [],
      "name": "getEndedBindingIds",
      "outputs": [
        {
          "internalType": "uint64[]",
          "name": "",
          "type": "uint64[]"
        }
      ],
      "stateMutability": "view",
      "type": "function",
      "constant": true
    },
    {
      "inputs": [],
      "name": "getOpenedBindingIds",
      "outputs": [
        {
          "internalType": "uint64[]",
          "name": "",
          "type": "uint64[]"
        }
      ],
      "stateMutability": "view",
      "type": "function",
      "constant": true
    },
    {
      "inputs": [],
      "name": "getCanceledBindingIds",
      "outputs": [
        {
          "internalType": "uint64[]",
          "name": "",
          "type": "uint64[]"
        }
      ],
      "stateMutability": "view",
      "type": "function",
      "constant": true
    },
    {
      "inputs": [
        {
          "internalType": "address",
          "name": "municipalityAddress",
          "type": "address"
        }
      ],
      "name": "getMunicipalityBindingIds",
      "outputs": [
        {
          "internalType": "uint64[]",
          "name": "",
          "type": "uint64[]"
        }
      ],
      "stateMutability": "view",
      "type": "function",
      "constant": true
    },
    {
      "inputs": [
        {
          "internalType": "uint64",
          "name": "_bindingId",
          "type": "uint64"
        },
        {
          "internalType": "uint64",
          "name": "_requestId",
          "type": "uint64"
        },
        {
          "internalType": "bytes16",
          "name": "password",
          "type": "bytes16"
        }
      ],
      "name": "openBinding",
      "outputs": [],
      "stateMutability": "payable",
      "type": "function",
      "payable": true
    },
    {
      "inputs": [
        {
          "internalType": "uint64",
          "name": "_bindingId",
          "type": "uint64"
        },
        {
          "internalType": "bytes16",
          "name": "password",
          "type": "bytes16"
        }
      ],
      "name": "cancelBinding",
      "outputs": [
        {
          "internalType": "bool",
          "name": "",
          "type": "bool"
        }
      ],
      "stateMutability": "payable",
      "type": "function",
      "payable": true
    },
    {
      "inputs": [
        {
          "internalType": "uint64",
          "name": "bindingId",
          "type": "uint64"
        }
      ],
      "name": "isActive",
      "outputs": [
        {
          "internalType": "bool",
          "name": "",
          "type": "bool"
        }
      ],
      "stateMutability": "view",
      "type": "function",
      "constant": true
    },
    {
      "inputs": [
        {
          "internalType": "uint64",
          "name": "_companyId",
          "type": "uint64"
        },
        {
          "internalType": "bytes16",
          "name": "_fullName",
          "type": "bytes16"
        },
        {
          "internalType": "bytes16",
          "name": "_phoneNo",
          "type": "bytes16"
        },
        {
          "internalType": "uint32",
          "name": "_price",
          "type": "uint32"
        },
        {
          "internalType": "uint64",
          "name": "_bindingId",
          "type": "uint64"
        },
        {
          "internalType": "bytes16[]",
          "name": "_details",
          "type": "bytes16[]"
        },
        {
          "internalType": "bytes16",
          "name": "password",
          "type": "bytes16"
        }
      ],
      "name": "requestToBinding",
      "outputs": [],
      "stateMutability": "payable",
      "type": "function",
      "payable": true
    },
    {
      "inputs": [
        {
          "internalType": "uint64",
          "name": "_requestId",
          "type": "uint64"
        }
      ],
      "name": "getBindingRequestByRequestId",
      "outputs": [
        {
          "components": [
            {
              "internalType": "uint64",
              "name": "requestId",
              "type": "uint64"
            },
            {
              "internalType": "uint64",
              "name": "companyId",
              "type": "uint64"
            },
            {
              "internalType": "bytes16",
              "name": "fullName",
              "type": "bytes16"
            },
            {
              "internalType": "bytes16",
              "name": "phoneNo",
              "type": "bytes16"
            },
            {
              "internalType": "uint32",
              "name": "price",
              "type": "uint32"
            },
            {
              "internalType": "uint64",
              "name": "bindingId",
              "type": "uint64"
            },
            {
              "internalType": "bytes16[]",
              "name": "details",
              "type": "bytes16[]"
            },
            {
              "internalType": "address",
              "name": "companyAddress",
              "type": "address"
            },
            {
              "internalType": "bool",
              "name": "isWinner",
              "type": "bool"
            }
          ],
          "internalType": "struct BindingContract.RequestBinding",
          "name": "",
          "type": "tuple"
        }
      ],
      "stateMutability": "view",
      "type": "function",
      "constant": true
    },
    {
      "inputs": [
        {
          "internalType": "address",
          "name": "_companyAddress",
          "type": "address"
        }
      ],
      "name": "getCompanyContractsRequestIds",
      "outputs": [
        {
          "internalType": "uint64[]",
          "name": "",
          "type": "uint64[]"
        }
      ],
      "stateMutability": "view",
      "type": "function",
      "constant": true
    },
    {
      "inputs": [
        {
          "internalType": "address",
          "name": "_companyAddress",
          "type": "address"
        }
      ],
      "name": "getCompanyContractsRequestEndedIds",
      "outputs": [
        {
          "internalType": "uint64[]",
          "name": "",
          "type": "uint64[]"
        }
      ],
      "stateMutability": "view",
      "type": "function",
      "constant": true
    },
    {
      "inputs": [
        {
          "internalType": "address",
          "name": "_companyAddress",
          "type": "address"
        }
      ],
      "name": "getCompanyContractsRequestOpenedIds",
      "outputs": [
        {
          "internalType": "uint64[]",
          "name": "",
          "type": "uint64[]"
        }
      ],
      "stateMutability": "view",
      "type": "function",
      "constant": true
    },
    {
      "inputs": [
        {
          "internalType": "address",
          "name": "_companyAddress",
          "type": "address"
        }
      ],
      "name": "getCompanyContractsRequestCanceledIds",
      "outputs": [
        {
          "internalType": "uint64[]",
          "name": "",
          "type": "uint64[]"
        }
      ],
      "stateMutability": "view",
      "type": "function",
      "constant": true
    },
    {
      "inputs": [],
      "name": "getBindingRequestCount",
      "outputs": [
        {
          "internalType": "uint64",
          "name": "",
          "type": "uint64"
        }
      ],
      "stateMutability": "view",
      "type": "function",
      "constant": true
    },
    {
      "inputs": [
        {
          "internalType": "bytes16[]",
          "name": "array",
          "type": "bytes16[]"
        },
        {
          "internalType": "bytes16",
          "name": "variable",
          "type": "bytes16"
        }
      ],
      "name": "searchInArray",
      "outputs": [
        {
          "internalType": "bool",
          "name": "",
          "type": "bool"
        }
      ],
      "stateMutability": "pure",
      "type": "function",
      "constant": true
    },
    {
      "inputs": [
        {
          "internalType": "bytes16[]",
          "name": "array",
          "type": "bytes16[]"
        },
        {
          "internalType": "bytes16",
          "name": "variable",
          "type": "bytes16"
        }
      ],
      "name": "isRepeatedItem",
      "outputs": [
        {
          "internalType": "bool",
          "name": "",
          "type": "bool"
        }
      ],
      "stateMutability": "pure",
      "type": "function",
      "constant": true
    }
  ],
  "bytecode": "0x608060405234801561001057600080fd5b506000600260006101000a81548167ffffffffffffffff021916908367ffffffffffffffff1602179055506000600260086101000a81548167ffffffffffffffff021916908367ffffffffffffffff16021790555061526f806100746000396000f3fe6080604052600436106101b75760003560e01c806393788036116100ec578063d5b9d3111161008a578063f2c62f3211610064578063f2c62f321461069b578063f30a518b146106cb578063fb80983914610708578063fe62cc3f1461074c576101b7565b8063d5b9d31114610608578063e9d715e014610645578063f1c493bc14610670576101b7565b80639c6bec79116100c65780639c6bec791461051c578063a9af28471461054c578063c44f45fe14610589578063d3b9207a146105cb576101b7565b806393788036146104b957806394256e67146104d55780639b8dab8114610500576101b7565b806339d13f3011610159578063511eb8c011610133578063511eb8c0146104055780635b3f14fa146104425780636454b3b61461046d5780638e1def571461049d576101b7565b806339d13f30146103475780633d86dea414610384578063509185d7146103c8576101b7565b8063247d173611610195578063247d17361461026557806329a63b67146102a25780633305ac52146102df57806334abcac91461030a576101b7565b80630e9ca501146101bc5780631a4d0aae146101e7578063232dd15714610228575b600080fd5b3480156101c857600080fd5b506101d1610789565b6040516101de9190613a63565b60405180910390f35b3480156101f357600080fd5b5061020e60048036038101906102099190613af0565b6107a7565b60405161021f959493929190613b67565b60405180910390f35b34801561023457600080fd5b5061024f600480360381019061024a9190613be6565b610838565b60405161025c9190613eb6565b60405180910390f35b34801561027157600080fd5b5061028c60048036038101906102879190613f04565b610b84565b6040516102999190613f40565b60405180910390f35b3480156102ae57600080fd5b506102c960048036038101906102c49190613af0565b610c7c565b6040516102d6919061400a565b60405180910390f35b3480156102eb57600080fd5b506102f4610e2f565b604051610301919061400a565b60405180910390f35b34801561031657600080fd5b50610331600480360381019061032c9190613be6565b610f62565b60405161033e9190613f40565b60405180910390f35b34801561035357600080fd5b5061036e60048036038101906103699190613be6565b61104e565b60405161037b9190614110565b60405180910390f35b34801561039057600080fd5b506103ab60048036038101906103a69190613be6565b611332565b6040516103bf989796959493929190614132565b60405180910390f35b3480156103d457600080fd5b506103ef60048036038101906103ea9190613f04565b611411565b6040516103fc9190613f40565b60405180910390f35b34801561041157600080fd5b5061042c60048036038101906104279190614309565b61150b565b6040516104399190613f40565b60405180910390f35b34801561044e57600080fd5b5061045761158d565b6040516104649190613a63565b60405180910390f35b61048760048036038101906104829190614365565b6115ab565b6040516104949190613f40565b60405180910390f35b6104b760048036038101906104b291906143d1565b61190e565b005b6104d360048036038101906104ce919061448f565b611e38565b005b3480156104e157600080fd5b506104ea6121f1565b6040516104f7919061400a565b60405180910390f35b61051a600480360381019061051591906145d1565b6122d1565b005b61053660048036038101906105319190614696565b612748565b6040516105439190613f40565b60405180910390f35b34801561055857600080fd5b50610573600480360381019061056e9190613af0565b6129d8565b604051610580919061400a565b60405180910390f35b34801561059557600080fd5b506105b060048036038101906105ab9190613af0565b612c0b565b6040516105c296959493929190614711565b60405180910390f35b3480156105d757600080fd5b506105f260048036038101906105ed9190614309565b612caf565b6040516105ff9190613f40565b60405180910390f35b34801561061457600080fd5b5061062f600480360381019061062a9190613af0565b612d5f565b60405161063c919061400a565b60405180910390f35b34801561065157600080fd5b5061065a612f91565b604051610667919061400a565b60405180910390f35b34801561067c57600080fd5b506106856130c5565b604051610692919061400a565b60405180910390f35b6106b560048036038101906106b09190614772565b6131f8565b6040516106c29190613f40565b60405180910390f35b3480156106d757600080fd5b506106f260048036038101906106ed9190613af0565b613440565b6040516106ff919061400a565b60405180910390f35b34801561071457600080fd5b5061072f600480360381019061072a9190613be6565b613563565b6040516107439897969594939291906147e8565b60405180910390f35b34801561075857600080fd5b50610773600480360381019061076e9190613af0565b61363e565b604051610780919061400a565b60405180910390f35b6000600260089054906101000a900467ffffffffffffffff16905090565b60016020528060005260406000206000915090508060000160009054906101000a900467ffffffffffffffff16908060000160089054906101000a900473ffffffffffffffffffffffffffffffffffffffff16908060010160009054906101000a900460801b908060010160109054906101000a900460801b908060020160009054906101000a900460801b905085565b610840613761565b600260009054906101000a900467ffffffffffffffff1667ffffffffffffffff168267ffffffffffffffff1611156108ad576040517f08c379a00000000000000000000000000000000000000000000000000000000081526004016108a4906148c3565b60405180910390fd5b600360008367ffffffffffffffff1667ffffffffffffffff168152602001908152602001600020604051806101400160405290816000820160009054906101000a900467ffffffffffffffff1667ffffffffffffffff1667ffffffffffffffff1681526020016000820160089054906101000a900460801b6fffffffffffffffffffffffffffffffff19166fffffffffffffffffffffffffffffffff191681526020016000820160189054906101000a900467ffffffffffffffff1667ffffffffffffffff1667ffffffffffffffff1681526020016001820160009054906101000a900467ffffffffffffffff1667ffffffffffffffff1667ffffffffffffffff16815260200160028201805480602002602001604051908101604052809291908181526020018280548015610a3857602002820191906000526020600020906000905b82829054906101000a900460801b6fffffffffffffffffffffffffffffffff191681526020019060100190602082600f010492830192600103820291508084116109f15790505b5050505050815260200160038201805480602002602001604051908101604052809291908181526020018280548015610ab657602002820191906000526020600020906000905b82829054906101000a900460ff1660ff1681526020019060010190602082600001049283019260010382029150808411610a7f5790505b505050505081526020016004820160009054906101000a900473ffffffffffffffffffffffffffffffffffffffff1673ffffffffffffffffffffffffffffffffffffffff1673ffffffffffffffffffffffffffffffffffffffff1681526020016004820160149054906101000a900460ff161515151581526020016004820160159054906101000a900460ff161515151581526020016004820160169054906101000a900467ffffffffffffffff1667ffffffffffffffff1667ffffffffffffffff16815250509050919050565b6000806000803373ffffffffffffffffffffffffffffffffffffffff1673ffffffffffffffffffffffffffffffffffffffff16815260200190815260200160002060000160009054906101000a900467ffffffffffffffff1667ffffffffffffffff1614610c7257816fffffffffffffffffffffffffffffffff19166000803373ffffffffffffffffffffffffffffffffffffffff1673ffffffffffffffffffffffffffffffffffffffff16815260200190815260200160002060020160109054906101000a900460801b6fffffffffffffffffffffffffffffffff19161415610c715760019050610c77565b5b600090505b919050565b6060806000600190505b600260089054906101000a900467ffffffffffffffff1667ffffffffffffffff168167ffffffffffffffff1611610e25578373ffffffffffffffffffffffffffffffffffffffff16600460008367ffffffffffffffff1667ffffffffffffffff16815260200190815260200160002060030160009054906101000a900473ffffffffffffffffffffffffffffffffffffffff1673ffffffffffffffffffffffffffffffffffffffff16148015610d425750610d4081610f62565b155b8015610dc0575060036000600460008467ffffffffffffffff1667ffffffffffffffff16815260200190815260200160002060010160149054906101000a900467ffffffffffffffff1667ffffffffffffffff1667ffffffffffffffff16815260200190815260200160002060040160149054906101000a900460ff165b15610e12578082600183610dd49190614912565b67ffffffffffffffff1681518110610def57610dee614946565b5b602002602001019067ffffffffffffffff16908167ffffffffffffffff16815250505b8080610e1d90614975565b915050610c86565b5080915050919050565b6060806000600190505b600260009054906101000a900467ffffffffffffffff1667ffffffffffffffff168167ffffffffffffffff1611610f5a57610e7381610f62565b158015610eb55750600360008267ffffffffffffffff1667ffffffffffffffff16815260200190815260200160002060040160149054906101000a900460ff16155b8015610ef55750600360008267ffffffffffffffff1667ffffffffffffffff16815260200190815260200160002060040160159054906101000a900460ff165b15610f47578082600183610f099190614912565b67ffffffffffffffff1681518110610f2457610f23614946565b5b602002602001019067ffffffffffffffff16908167ffffffffffffffff16815250505b8080610f5290614975565b915050610e39565b508091505090565b6000600260009054906101000a900467ffffffffffffffff1667ffffffffffffffff168267ffffffffffffffff16116110445742600360008467ffffffffffffffff1667ffffffffffffffff16815260200190815260200160002060010160009054906101000a900467ffffffffffffffff1667ffffffffffffffff1610158015611035575042600360008467ffffffffffffffff1667ffffffffffffffff16815260200190815260200160002060000160189054906101000a900467ffffffffffffffff1667ffffffffffffffff1611155b156110435760019050611049565b5b600090505b919050565b611056613809565b600260089054906101000a900467ffffffffffffffff1667ffffffffffffffff168267ffffffffffffffff1611156110c3576040517f08c379a00000000000000000000000000000000000000000000000000000000081526004016110ba906149f2565b60405180910390fd5b600460008367ffffffffffffffff1667ffffffffffffffff168152602001908152602001600020604051806101200160405290816000820160009054906101000a900467ffffffffffffffff1667ffffffffffffffff1667ffffffffffffffff1681526020016000820160089054906101000a900467ffffffffffffffff1667ffffffffffffffff1667ffffffffffffffff1681526020016000820160109054906101000a900460801b6fffffffffffffffffffffffffffffffff19166fffffffffffffffffffffffffffffffff191681526020016001820160009054906101000a900460801b6fffffffffffffffffffffffffffffffff19166fffffffffffffffffffffffffffffffff191681526020016001820160109054906101000a900463ffffffff1663ffffffff1663ffffffff1681526020016001820160149054906101000a900467ffffffffffffffff1667ffffffffffffffff1667ffffffffffffffff168152602001600282018054806020026020016040519081016040528092919081815260200182805480156112b157602002820191906000526020600020906000905b82829054906101000a900460801b6fffffffffffffffffffffffffffffffff191681526020019060100190602082600f0104928301926001038202915080841161126a5790505b505050505081526020016003820160009054906101000a900473ffffffffffffffffffffffffffffffffffffffff1673ffffffffffffffffffffffffffffffffffffffff1673ffffffffffffffffffffffffffffffffffffffff1681526020016003820160149054906101000a900460ff1615151515815250509050919050565b60036020528060005260406000206000915090508060000160009054906101000a900467ffffffffffffffff16908060000160089054906101000a900460801b908060000160189054906101000a900467ffffffffffffffff16908060010160009054906101000a900467ffffffffffffffff16908060040160009054906101000a900473ffffffffffffffffffffffffffffffffffffffff16908060040160149054906101000a900460ff16908060040160159054906101000a900460ff16908060040160169054906101000a900467ffffffffffffffff16905088565b600080600160003373ffffffffffffffffffffffffffffffffffffffff1673ffffffffffffffffffffffffffffffffffffffff16815260200190815260200160002060000160009054906101000a900467ffffffffffffffff1667ffffffffffffffff161461150157816fffffffffffffffffffffffffffffffff1916600160003373ffffffffffffffffffffffffffffffffffffffff1673ffffffffffffffffffffffffffffffffffffffff16815260200190815260200160002060020160009054906101000a900460801b6fffffffffffffffffffffffffffffffff191614156115005760019050611506565b5b600090505b919050565b600080600090505b835181101561158157826fffffffffffffffffffffffffffffffff191684828151811061154357611542614946565b5b60200260200101516fffffffffffffffffffffffffffffffff1916141561156e576001915050611587565b808061157990614a1c565b915050611513565b50600090505b92915050565b6000600260009054906101000a900467ffffffffffffffff16905090565b6000600160003373ffffffffffffffffffffffffffffffffffffffff1673ffffffffffffffffffffffffffffffffffffffff16815260200190815260200160002060020160009054906101000a900460801b6fffffffffffffffffffffffffffffffff1916826fffffffffffffffffffffffffffffffff191614611664576040517f08c379a000000000000000000000000000000000000000000000000000000000815260040161165b90614ab1565b60405180910390fd5b600260009054906101000a900467ffffffffffffffff1667ffffffffffffffff168367ffffffffffffffff1611156116d1576040517f08c379a00000000000000000000000000000000000000000000000000000000081526004016116c890614b1d565b60405180910390fd5b600360008467ffffffffffffffff1667ffffffffffffffff16815260200190815260200160002060040160009054906101000a900473ffffffffffffffffffffffffffffffffffffffff1673ffffffffffffffffffffffffffffffffffffffff163373ffffffffffffffffffffffffffffffffffffffff1614611789576040517f08c379a000000000000000000000000000000000000000000000000000000000815260040161178090614baf565b60405180910390fd5b600360008467ffffffffffffffff1667ffffffffffffffff16815260200190815260200160002060040160149054906101000a900460ff1615611801576040517f08c379a00000000000000000000000000000000000000000000000000000000081526004016117f890614c41565b60405180910390fd5b600360008467ffffffffffffffff1667ffffffffffffffff16815260200190815260200160002060040160159054906101000a900460ff1615611879576040517f08c379a000000000000000000000000000000000000000000000000000000000815260040161187090614cad565b60405180910390fd5b61188283610f62565b6118c1576040517f08c379a00000000000000000000000000000000000000000000000000000000081526004016118b890614d19565b60405180910390fd5b6001600360008567ffffffffffffffff1667ffffffffffffffff16815260200190815260200160002060040160146101000a81548160ff0219169083151502179055506001905092915050565b6000803373ffffffffffffffffffffffffffffffffffffffff1673ffffffffffffffffffffffffffffffffffffffff16815260200190815260200160002060020160109054906101000a900460801b6fffffffffffffffffffffffffffffffff1916816fffffffffffffffffffffffffffffffff1916146119c4576040517f08c379a00000000000000000000000000000000000000000000000000000000081526004016119bb90614ab1565b60405180910390fd5b6119cd83610f62565b611a0c576040517f08c379a0000000000000000000000000000000000000000000000000000000008152600401611a0390614dab565b60405180910390fd5b6000611a1784610838565b9050600081608001519050805184511115611a67576040517f08c379a0000000000000000000000000000000000000000000000000000000008152600401611a5e90614e3d565b60405180910390fd5b60005b8451811015611b4d57611a9782868381518110611a8a57611a89614946565b5b602002602001015161150b565b611ad6576040517f08c379a0000000000000000000000000000000000000000000000000000000008152600401611acd90614ecf565b60405180910390fd5b611afa85868381518110611aed57611aec614946565b5b6020026020010151612caf565b15611b3a576040517f08c379a0000000000000000000000000000000000000000000000000000000008152600401611b3190614f61565b60405180910390fd5b8080611b4590614a1c565b915050611a6a565b506002600881819054906101000a900467ffffffffffffffff1680929190611b7490614975565b91906101000a81548167ffffffffffffffff021916908367ffffffffffffffff16021790555050604051806101200160405280600260089054906101000a900467ffffffffffffffff1667ffffffffffffffff1681526020018a67ffffffffffffffff168152602001896fffffffffffffffffffffffffffffffff19168152602001886fffffffffffffffffffffffffffffffff191681526020018763ffffffff1681526020018667ffffffffffffffff1681526020018581526020013373ffffffffffffffffffffffffffffffffffffffff1681526020016000151581525060046000600260089054906101000a900467ffffffffffffffff1667ffffffffffffffff1667ffffffffffffffff16815260200190815260200160002060008201518160000160006101000a81548167ffffffffffffffff021916908367ffffffffffffffff16021790555060208201518160000160086101000a81548167ffffffffffffffff021916908367ffffffffffffffff16021790555060408201518160000160106101000a8154816fffffffffffffffffffffffffffffffff021916908360801c021790555060608201518160010160006101000a8154816fffffffffffffffffffffffffffffffff021916908360801c021790555060808201518160010160106101000a81548163ffffffff021916908363ffffffff16021790555060a08201518160010160146101000a81548167ffffffffffffffff021916908367ffffffffffffffff16021790555060c0820151816002019080519060200190611dc19291906138b7565b5060e08201518160030160006101000a81548173ffffffffffffffffffffffffffffffffffffffff021916908373ffffffffffffffffffffffffffffffffffffffff1602179055506101008201518160030160146101000a81548160ff021916908315150217905550905050505050505050505050565b600160003373ffffffffffffffffffffffffffffffffffffffff1673ffffffffffffffffffffffffffffffffffffffff16815260200190815260200160002060020160009054906101000a900460801b6fffffffffffffffffffffffffffffffff1916816fffffffffffffffffffffffffffffffff191614611eef576040517f08c379a0000000000000000000000000000000000000000000000000000000008152600401611ee690614ab1565b60405180910390fd5b600260009054906101000a900467ffffffffffffffff1667ffffffffffffffff168367ffffffffffffffff161115611f5c576040517f08c379a0000000000000000000000000000000000000000000000000000000008152600401611f5390614fcd565b60405180910390fd5b600260009054906101000a900467ffffffffffffffff1667ffffffffffffffff168267ffffffffffffffff161115611fc9576040517f08c379a0000000000000000000000000000000000000000000000000000000008152600401611fc0906149f2565b60405180910390fd5b8267ffffffffffffffff16600460008467ffffffffffffffff1667ffffffffffffffff16815260200190815260200160002060010160149054906101000a900467ffffffffffffffff1667ffffffffffffffff161461205d576040517f08c379a00000000000000000000000000000000000000000000000000000000081526004016120549061505f565b60405180910390fd5b600360008467ffffffffffffffff1667ffffffffffffffff16815260200190815260200160002060040160009054906101000a900473ffffffffffffffffffffffffffffffffffffffff1673ffffffffffffffffffffffffffffffffffffffff163373ffffffffffffffffffffffffffffffffffffffff1614612115576040517f08c379a000000000000000000000000000000000000000000000000000000000815260040161210c906150f1565b60405180910390fd5b6001600360008567ffffffffffffffff1667ffffffffffffffff16815260200190815260200160002060040160156101000a81548160ff02191690831515021790555081600360008567ffffffffffffffff1667ffffffffffffffff16815260200190815260200160002060040160166101000a81548167ffffffffffffffff021916908367ffffffffffffffff1602179055506001600460008467ffffffffffffffff1667ffffffffffffffff16815260200190815260200160002060030160146101000a81548160ff021916908315150217905550505050565b6060806000600190505b600260009054906101000a900467ffffffffffffffff1667ffffffffffffffff168167ffffffffffffffff16116122c957600360008267ffffffffffffffff1667ffffffffffffffff16815260200190815260200160002060040160149054906101000a900460ff16156122b65780826001836122789190614912565b67ffffffffffffffff168151811061229357612292614946565b5b602002602001019067ffffffffffffffff16908167ffffffffffffffff16815250505b80806122c190614975565b9150506121fb565b508091505090565b600160003373ffffffffffffffffffffffffffffffffffffffff1673ffffffffffffffffffffffffffffffffffffffff16815260200190815260200160002060020160009054906101000a900460801b6fffffffffffffffffffffffffffffffff1916816fffffffffffffffffffffffffffffffff191614612388576040517f08c379a000000000000000000000000000000000000000000000000000000000815260040161237f90614ab1565b60405180910390fd5b81518351146123cc576040517f08c379a00000000000000000000000000000000000000000000000000000000081526004016123c39061515d565b60405180910390fd5b60005b835181101561244f576123fc848583815181106123ef576123ee614946565b5b6020026020010151612caf565b1561243c576040517f08c379a0000000000000000000000000000000000000000000000000000000008152600401612433906151ef565b60405180910390fd5b808061244790614a1c565b9150506123cf565b506002600081819054906101000a900467ffffffffffffffff168092919061247690614975565b91906101000a81548167ffffffffffffffff021916908367ffffffffffffffff16021790555050604051806101400160405280600260009054906101000a900467ffffffffffffffff1667ffffffffffffffff168152602001876fffffffffffffffffffffffffffffffff191681526020018667ffffffffffffffff1681526020018567ffffffffffffffff1681526020018481526020018381526020013373ffffffffffffffffffffffffffffffffffffffff168152602001600015158152602001600015158152602001600067ffffffffffffffff1681525060036000600260009054906101000a900467ffffffffffffffff1667ffffffffffffffff1667ffffffffffffffff16815260200190815260200160002060008201518160000160006101000a81548167ffffffffffffffff021916908367ffffffffffffffff16021790555060208201518160000160086101000a8154816fffffffffffffffffffffffffffffffff021916908360801c021790555060408201518160000160186101000a81548167ffffffffffffffff021916908367ffffffffffffffff16021790555060608201518160010160006101000a81548167ffffffffffffffff021916908367ffffffffffffffff16021790555060808201518160020190805190602001906126679291906138b7565b5060a082015181600301908051906020019061268492919061397c565b5060c08201518160040160006101000a81548173ffffffffffffffffffffffffffffffffffffffff021916908373ffffffffffffffffffffffffffffffffffffffff16021790555060e08201518160040160146101000a81548160ff0219169083151502179055506101008201518160040160156101000a81548160ff0219169083151502179055506101208201518160040160166101000a81548167ffffffffffffffff021916908367ffffffffffffffff160217905550905050505050505050565b6000806000803373ffffffffffffffffffffffffffffffffffffffff1673ffffffffffffffffffffffffffffffffffffffff16815260200190815260200160002060000160009054906101000a900467ffffffffffffffff1667ffffffffffffffff1614156129ca576040518060c001604052808767ffffffffffffffff1681526020013373ffffffffffffffffffffffffffffffffffffffff168152602001866fffffffffffffffffffffffffffffffff19168152602001856fffffffffffffffffffffffffffffffff19168152602001846fffffffffffffffffffffffffffffffff19168152602001836fffffffffffffffffffffffffffffffff19168152506000803373ffffffffffffffffffffffffffffffffffffffff1673ffffffffffffffffffffffffffffffffffffffff16815260200190815260200160002060008201518160000160006101000a81548167ffffffffffffffff021916908367ffffffffffffffff16021790555060208201518160000160086101000a81548173ffffffffffffffffffffffffffffffffffffffff021916908373ffffffffffffffffffffffffffffffffffffffff16021790555060408201518160010160006101000a8154816fffffffffffffffffffffffffffffffff021916908360801c021790555060608201518160010160106101000a8154816fffffffffffffffffffffffffffffffff021916908360801c021790555060808201518160020160006101000a8154816fffffffffffffffffffffffffffffffff021916908360801c021790555060a08201518160020160106101000a8154816fffffffffffffffffffffffffffffffff021916908360801c0217905550905050600190506129cf565b600090505b95945050505050565b6060806000600190505b600260089054906101000a900467ffffffffffffffff1667ffffffffffffffff168167ffffffffffffffff1611612c01578373ffffffffffffffffffffffffffffffffffffffff16600460008367ffffffffffffffff1667ffffffffffffffff16815260200190815260200160002060030160009054906101000a900473ffffffffffffffffffffffffffffffffffffffff1673ffffffffffffffffffffffffffffffffffffffff16148015612a9e5750612a9c81610f62565b155b8015612b1d575060036000600460008467ffffffffffffffff1667ffffffffffffffff16815260200190815260200160002060010160149054906101000a900467ffffffffffffffff1667ffffffffffffffff1667ffffffffffffffff16815260200190815260200160002060040160159054906101000a900460ff16155b8015612b9c575060036000600460008467ffffffffffffffff1667ffffffffffffffff16815260200190815260200160002060010160149054906101000a900467ffffffffffffffff1667ffffffffffffffff1667ffffffffffffffff16815260200190815260200160002060040160149054906101000a900460ff16155b15612bee578082600183612bb09190614912565b67ffffffffffffffff1681518110612bcb57612bca614946565b5b602002602001019067ffffffffffffffff16908167ffffffffffffffff16815250505b8080612bf990614975565b9150506129e2565b5080915050919050565b60006020528060005260406000206000915090508060000160009054906101000a900467ffffffffffffffff16908060000160089054906101000a900473ffffffffffffffffffffffffffffffffffffffff16908060010160009054906101000a900460801b908060010160109054906101000a900460801b908060020160009054906101000a900460801b908060020160109054906101000a900460801b905086565b6000806000905060005b8451811015612d3c57836fffffffffffffffffffffffffffffffff1916858281518110612ce957612ce8614946565b5b60200260200101516fffffffffffffffffffffffffffffffff19161415612d19578180612d159061520f565b9250505b60028260ff1610612d2957612d3c565b8080612d3490614a1c565b915050612cb9565b5060018160ff161415612d53576000915050612d59565b60019150505b92915050565b6060806000600190505b600260089054906101000a900467ffffffffffffffff1667ffffffffffffffff168167ffffffffffffffff1611612f87578373ffffffffffffffffffffffffffffffffffffffff16600460008367ffffffffffffffff1667ffffffffffffffff16815260200190815260200160002060030160009054906101000a900473ffffffffffffffffffffffffffffffffffffffff1673ffffffffffffffffffffffffffffffffffffffff16148015612e255750612e2381610f62565b155b8015612ea3575060036000600460008467ffffffffffffffff1667ffffffffffffffff16815260200190815260200160002060010160149054906101000a900467ffffffffffffffff1667ffffffffffffffff1667ffffffffffffffff16815260200190815260200160002060040160159054906101000a900460ff165b8015612f22575060036000600460008467ffffffffffffffff1667ffffffffffffffff16815260200190815260200160002060010160149054906101000a900467ffffffffffffffff1667ffffffffffffffff1667ffffffffffffffff16815260200190815260200160002060040160149054906101000a900460ff16155b15612f74578082600183612f369190614912565b67ffffffffffffffff1681518110612f5157612f50614946565b5b602002602001019067ffffffffffffffff16908167ffffffffffffffff16815250505b8080612f7f90614975565b915050612d69565b5080915050919050565b6060806000600190505b600260009054906101000a900467ffffffffffffffff1667ffffffffffffffff168167ffffffffffffffff16116130bd57612fd581610f62565b1580156130175750600360008267ffffffffffffffff1667ffffffffffffffff16815260200190815260200160002060040160149054906101000a900460ff16155b80156130585750600360008267ffffffffffffffff1667ffffffffffffffff16815260200190815260200160002060040160159054906101000a900460ff16155b156130aa57808260018361306c9190614912565b67ffffffffffffffff168151811061308757613086614946565b5b602002602001019067ffffffffffffffff16908167ffffffffffffffff16815250505b80806130b590614975565b915050612f9b565b508091505090565b6060806000600190505b600260009054906101000a900467ffffffffffffffff1667ffffffffffffffff168167ffffffffffffffff16116131f05761310981610f62565b801561314a5750600360008267ffffffffffffffff1667ffffffffffffffff16815260200190815260200160002060040160149054906101000a900460ff16155b801561318b5750600360008267ffffffffffffffff1667ffffffffffffffff16815260200190815260200160002060040160159054906101000a900460ff16155b156131dd57808260018361319f9190614912565b67ffffffffffffffff16815181106131ba576131b9614946565b5b602002602001019067ffffffffffffffff16908167ffffffffffffffff16815250505b80806131e890614975565b9150506130cf565b508091505090565b600080600160003373ffffffffffffffffffffffffffffffffffffffff1673ffffffffffffffffffffffffffffffffffffffff16815260200190815260200160002060000160009054906101000a900467ffffffffffffffff1667ffffffffffffffff161415613433576040518060a001604052808667ffffffffffffffff1681526020013373ffffffffffffffffffffffffffffffffffffffff168152602001856fffffffffffffffffffffffffffffffff19168152602001846fffffffffffffffffffffffffffffffff19168152602001836fffffffffffffffffffffffffffffffff1916815250600160003373ffffffffffffffffffffffffffffffffffffffff1673ffffffffffffffffffffffffffffffffffffffff16815260200190815260200160002060008201518160000160006101000a81548167ffffffffffffffff021916908367ffffffffffffffff16021790555060208201518160000160086101000a81548173ffffffffffffffffffffffffffffffffffffffff021916908373ffffffffffffffffffffffffffffffffffffffff16021790555060408201518160010160006101000a8154816fffffffffffffffffffffffffffffffff021916908360801c021790555060608201518160010160106101000a8154816fffffffffffffffffffffffffffffffff021916908360801c021790555060808201518160020160006101000a8154816fffffffffffffffffffffffffffffffff021916908360801c021790555090505060019050613438565b600090505b949350505050565b6060806000600190505b600260089054906101000a900467ffffffffffffffff1667ffffffffffffffff168167ffffffffffffffff1611613559578373ffffffffffffffffffffffffffffffffffffffff16600460008367ffffffffffffffff1667ffffffffffffffff16815260200190815260200160002060030160009054906101000a900473ffffffffffffffffffffffffffffffffffffffff1673ffffffffffffffffffffffffffffffffffffffff1614156135465780826001836135089190614912565b67ffffffffffffffff168151811061352357613522614946565b5b602002602001019067ffffffffffffffff16908167ffffffffffffffff16815250505b808061355190614975565b91505061344a565b5080915050919050565b60046020528060005260406000206000915090508060000160009054906101000a900467ffffffffffffffff16908060000160089054906101000a900467ffffffffffffffff16908060000160109054906101000a900460801b908060010160009054906101000a900460801b908060010160109054906101000a900463ffffffff16908060010160149054906101000a900467ffffffffffffffff16908060030160009054906101000a900473ffffffffffffffffffffffffffffffffffffffff16908060030160149054906101000a900460ff16905088565b6060806000600190505b600260009054906101000a900467ffffffffffffffff1667ffffffffffffffff168167ffffffffffffffff1611613757578373ffffffffffffffffffffffffffffffffffffffff16600360008367ffffffffffffffff1667ffffffffffffffff16815260200190815260200160002060040160009054906101000a900473ffffffffffffffffffffffffffffffffffffffff1673ffffffffffffffffffffffffffffffffffffffff1614156137445780826001836137069190614912565b67ffffffffffffffff168151811061372157613720614946565b5b602002602001019067ffffffffffffffff16908167ffffffffffffffff16815250505b808061374f90614975565b915050613648565b5080915050919050565b604051806101400160405280600067ffffffffffffffff16815260200160006fffffffffffffffffffffffffffffffff19168152602001600067ffffffffffffffff168152602001600067ffffffffffffffff1681526020016060815260200160608152602001600073ffffffffffffffffffffffffffffffffffffffff168152602001600015158152602001600015158152602001600067ffffffffffffffff1681525090565b604051806101200160405280600067ffffffffffffffff168152602001600067ffffffffffffffff16815260200160006fffffffffffffffffffffffffffffffff1916815260200160006fffffffffffffffffffffffffffffffff19168152602001600063ffffffff168152602001600067ffffffffffffffff16815260200160608152602001600073ffffffffffffffffffffffffffffffffffffffff1681526020016000151581525090565b8280548282559060005260206000209060010160029004810192821561396b5791602002820160005b8382111561392d57835183826101000a8154816fffffffffffffffffffffffffffffffff021916908360801c02179055509260200192601001602081600f010492830192600103026138e0565b80156139695782816101000a8154906fffffffffffffffffffffffffffffffff0219169055601001602081600f0104928301926001030261392d565b505b5090506139789190613a23565b5090565b82805482825590600052602060002090601f01602090048101928215613a125791602002820160005b838211156139e357835183826101000a81548160ff021916908360ff16021790555092602001926001016020816000010492830192600103026139a5565b8015613a105782816101000a81549060ff02191690556001016020816000010492830192600103026139e3565b505b509050613a1f9190613a23565b5090565b5b80821115613a3c576000816000905550600101613a24565b5090565b600067ffffffffffffffff82169050919050565b613a5d81613a40565b82525050565b6000602082019050613a786000830184613a54565b92915050565b6000604051905090565b600080fd5b600080fd5b600073ffffffffffffffffffffffffffffffffffffffff82169050919050565b6000613abd82613a92565b9050919050565b613acd81613ab2565b8114613ad857600080fd5b50565b600081359050613aea81613ac4565b92915050565b600060208284031215613b0657613b05613a88565b5b6000613b1484828501613adb565b91505092915050565b613b2681613ab2565b82525050565b60007fffffffffffffffffffffffffffffffff0000000000000000000000000000000082169050919050565b613b6181613b2c565b82525050565b600060a082019050613b7c6000830188613a54565b613b896020830187613b1d565b613b966040830186613b58565b613ba36060830185613b58565b613bb06080830184613b58565b9695505050505050565b613bc381613a40565b8114613bce57600080fd5b50565b600081359050613be081613bba565b92915050565b600060208284031215613bfc57613bfb613a88565b5b6000613c0a84828501613bd1565b91505092915050565b613c1c81613a40565b82525050565b613c2b81613b2c565b82525050565b600081519050919050565b600082825260208201905092915050565b6000819050602082019050919050565b6000613c698383613c22565b60208301905092915050565b6000602082019050919050565b6000613c8d82613c31565b613c978185613c3c565b9350613ca283613c4d565b8060005b83811015613cd3578151613cba8882613c5d565b9750613cc583613c75565b925050600181019050613ca6565b5085935050505092915050565b600081519050919050565b600082825260208201905092915050565b6000819050602082019050919050565b600060ff82169050919050565b613d2281613d0c565b82525050565b6000613d348383613d19565b60208301905092915050565b6000602082019050919050565b6000613d5882613ce0565b613d628185613ceb565b9350613d6d83613cfc565b8060005b83811015613d9e578151613d858882613d28565b9750613d9083613d40565b925050600181019050613d71565b5085935050505092915050565b613db481613ab2565b82525050565b60008115159050919050565b613dcf81613dba565b82525050565b600061014083016000830151613dee6000860182613c13565b506020830151613e016020860182613c22565b506040830151613e146040860182613c13565b506060830151613e276060860182613c13565b5060808301518482036080860152613e3f8282613c82565b91505060a083015184820360a0860152613e598282613d4d565b91505060c0830151613e6e60c0860182613dab565b5060e0830151613e8160e0860182613dc6565b50610100830151613e96610100860182613dc6565b50610120830151613eab610120860182613c13565b508091505092915050565b60006020820190508181036000830152613ed08184613dd5565b905092915050565b613ee181613b2c565b8114613eec57600080fd5b50565b600081359050613efe81613ed8565b92915050565b600060208284031215613f1a57613f19613a88565b5b6000613f2884828501613eef565b91505092915050565b613f3a81613dba565b82525050565b6000602082019050613f556000830184613f31565b92915050565b600081519050919050565b600082825260208201905092915050565b6000819050602082019050919050565b6000613f938383613c13565b60208301905092915050565b6000602082019050919050565b6000613fb782613f5b565b613fc18185613f66565b9350613fcc83613f77565b8060005b83811015613ffd578151613fe48882613f87565b9750613fef83613f9f565b925050600181019050613fd0565b5085935050505092915050565b600060208201905081810360008301526140248184613fac565b905092915050565b600063ffffffff82169050919050565b6140458161402c565b82525050565b6000610120830160008301516140646000860182613c13565b5060208301516140776020860182613c13565b50604083015161408a6040860182613c22565b50606083015161409d6060860182613c22565b5060808301516140b0608086018261403c565b5060a08301516140c360a0860182613c13565b5060c083015184820360c08601526140db8282613c82565b91505060e08301516140f060e0860182613dab565b50610100830151614105610100860182613dc6565b508091505092915050565b6000602082019050818103600083015261412a818461404b565b905092915050565b600061010082019050614148600083018b613a54565b614155602083018a613b58565b6141626040830189613a54565b61416f6060830188613a54565b61417c6080830187613b1d565b61418960a0830186613f31565b61419660c0830185613f31565b6141a360e0830184613a54565b9998505050505050505050565b600080fd5b6000601f19601f8301169050919050565b7f4e487b7100000000000000000000000000000000000000000000000000000000600052604160045260246000fd5b6141fe826141b5565b810181811067ffffffffffffffff8211171561421d5761421c6141c6565b5b80604052505050565b6000614230613a7e565b905061423c82826141f5565b919050565b600067ffffffffffffffff82111561425c5761425b6141c6565b5b602082029050602081019050919050565b600080fd5b600061428561428084614241565b614226565b905080838252602082019050602084028301858111156142a8576142a761426d565b5b835b818110156142d157806142bd8882613eef565b8452602084019350506020810190506142aa565b5050509392505050565b600082601f8301126142f0576142ef6141b0565b5b8135614300848260208601614272565b91505092915050565b600080604083850312156143205761431f613a88565b5b600083013567ffffffffffffffff81111561433e5761433d613a8d565b5b61434a858286016142db565b925050602061435b85828601613eef565b9150509250929050565b6000806040838503121561437c5761437b613a88565b5b600061438a85828601613bd1565b925050602061439b85828601613eef565b9150509250929050565b6143ae8161402c565b81146143b957600080fd5b50565b6000813590506143cb816143a5565b92915050565b600080600080600080600060e0888a0312156143f0576143ef613a88565b5b60006143fe8a828b01613bd1565b975050602061440f8a828b01613eef565b96505060406144208a828b01613eef565b95505060606144318a828b016143bc565b94505060806144428a828b01613bd1565b93505060a088013567ffffffffffffffff81111561446357614462613a8d565b5b61446f8a828b016142db565b92505060c06144808a828b01613eef565b91505092959891949750929550565b6000806000606084860312156144a8576144a7613a88565b5b60006144b686828701613bd1565b93505060206144c786828701613bd1565b92505060406144d886828701613eef565b9150509250925092565b600067ffffffffffffffff8211156144fd576144fc6141c6565b5b602082029050602081019050919050565b61451781613d0c565b811461452257600080fd5b50565b6000813590506145348161450e565b92915050565b600061454d614548846144e2565b614226565b905080838252602082019050602084028301858111156145705761456f61426d565b5b835b8181101561459957806145858882614525565b845260208401935050602081019050614572565b5050509392505050565b600082601f8301126145b8576145b76141b0565b5b81356145c884826020860161453a565b91505092915050565b60008060008060008060c087890312156145ee576145ed613a88565b5b60006145fc89828a01613eef565b965050602061460d89828a01613bd1565b955050604061461e89828a01613bd1565b945050606087013567ffffffffffffffff81111561463f5761463e613a8d565b5b61464b89828a016142db565b935050608087013567ffffffffffffffff81111561466c5761466b613a8d565b5b61467889828a016145a3565b92505060a061468989828a01613eef565b9150509295509295509295565b600080600080600060a086880312156146b2576146b1613a88565b5b60006146c088828901613bd1565b95505060206146d188828901613eef565b94505060406146e288828901613eef565b93505060606146f388828901613eef565b925050608061470488828901613eef565b9150509295509295909350565b600060c0820190506147266000830189613a54565b6147336020830188613b1d565b6147406040830187613b58565b61474d6060830186613b58565b61475a6080830185613b58565b61476760a0830184613b58565b979650505050505050565b6000806000806080858703121561478c5761478b613a88565b5b600061479a87828801613bd1565b94505060206147ab87828801613eef565b93505060406147bc87828801613eef565b92505060606147cd87828801613eef565b91505092959194509250565b6147e28161402c565b82525050565b6000610100820190506147fe600083018b613a54565b61480b602083018a613a54565b6148186040830189613b58565b6148256060830188613b58565b61483260808301876147d9565b61483f60a0830186613a54565b61484c60c0830185613b1d565b61485960e0830184613f31565b9998505050505050505050565b600082825260208201905092915050565b7f6572726f7220696e2062696e64696e6720696400000000000000000000000000600082015250565b60006148ad601383614866565b91506148b882614877565b602082019050919050565b600060208201905081810360008301526148dc816148a0565b9050919050565b7f4e487b7100000000000000000000000000000000000000000000000000000000600052601160045260246000fd5b600061491d82613a40565b915061492883613a40565b92508282101561493b5761493a6148e3565b5b828203905092915050565b7f4e487b7100000000000000000000000000000000000000000000000000000000600052603260045260246000fd5b600061498082613a40565b915067ffffffffffffffff82141561499b5761499a6148e3565b5b600182019050919050565b7f696e76616c696420726571756573742069640000000000000000000000000000600082015250565b60006149dc601283614866565b91506149e7826149a6565b602082019050919050565b60006020820190508181036000830152614a0b816149cf565b9050919050565b6000819050919050565b6000614a2782614a12565b91507fffffffffffffffffffffffffffffffffffffffffffffffffffffffffffffffff821415614a5a57614a596148e3565b5b600182019050919050565b7f70617373776f7264206e6f7420636f7272656374000000000000000000000000600082015250565b6000614a9b601483614866565b9150614aa682614a65565b602082019050919050565b60006020820190508181036000830152614aca81614a8e565b9050919050565b7f62696e64696e6720636f6e7472616374206e6f7420666f756e64000000000000600082015250565b6000614b07601a83614866565b9150614b1282614ad1565b602082019050919050565b60006020820190508181036000830152614b3681614afa565b9050919050565b7f796f7520617265206e6f74206f776e657220746869732062696e64696e67206360008201527f6f6e747261637400000000000000000000000000000000000000000000000000602082015250565b6000614b99602783614866565b9150614ba482614b3d565b604082019050919050565b60006020820190508181036000830152614bc881614b8c565b9050919050565b7f746869732062696e64696e6720636f6e747261637420616c726561647920636160008201527f6e63656c65640000000000000000000000000000000000000000000000000000602082015250565b6000614c2b602683614866565b9150614c3682614bcf565b604082019050919050565b60006020820190508181036000830152614c5a81614c1e565b9050919050565b7f746869732062696e64696e6720636f6e7472616374206973206f70656e656400600082015250565b6000614c97601f83614866565b9150614ca282614c61565b602082019050919050565b60006020820190508181036000830152614cc681614c8a565b9050919050565b7f746869732062696e64696e6720636f6e747261637420697320656e6465640000600082015250565b6000614d03601e83614866565b9150614d0e82614ccd565b602082019050919050565b60006020820190508181036000830152614d3281614cf6565b9050919050565b7f746869732062696e64696e6720636f6e7472616374206e6f742061637469766560008201527f206f722062696e64696e67206964206e6f742076616c69640000000000000000602082015250565b6000614d95603883614866565b9150614da082614d39565b604082019050919050565b60006020820190508181036000830152614dc481614d88565b9050919050565b7f696e76616c69642064657461696c73202c20746f6f206d75636820646574616960008201527f6c73200000000000000000000000000000000000000000000000000000000000602082015250565b6000614e27602383614866565b9150614e3282614dcb565b604082019050919050565b60006020820190508181036000830152614e5681614e1a565b9050919050565b7f696e76616c696420696e2064657461696c73202864657461696c73206974656d60008201527f206e6f7420666f756e6429000000000000000000000000000000000000000000602082015250565b6000614eb9602b83614866565b9150614ec482614e5d565b604082019050919050565b60006020820190508181036000830152614ee881614eac565b9050919050565b7f696e76616c696420696e2064657461696c732028726570656174696e6720656c60008201527f656d656e74290000000000000000000000000000000000000000000000000000602082015250565b6000614f4b602683614866565b9150614f5682614eef565b604082019050919050565b60006020820190508181036000830152614f7a81614f3e565b9050919050565b7f696e76616c69642062696e64696e672069640000000000000000000000000000600082015250565b6000614fb7601283614866565b9150614fc282614f81565b602082019050919050565b60006020820190508181036000830152614fe681614faa565b9050919050565b7f746869732072657175657374206964206e6f7420696e20746869732062696e6460008201527f696e672000000000000000000000000000000000000000000000000000000000602082015250565b6000615049602483614866565b915061505482614fed565b604082019050919050565b600060208201905081810360008301526150788161503c565b9050919050565b7f796f7520617265206e6f7420616e206f776e6572206f6620746865736520626960008201527f6e64696e6720636f6e7472616374200000000000000000000000000000000000602082015250565b60006150db602f83614866565b91506150e68261507f565b604082019050919050565b6000602082019050818103600083015261510a816150ce565b9050919050565b7f706f696e7473206e6f7420657175616c2064657461696c730000000000000000600082015250565b6000615147601883614866565b915061515282615111565b602082019050919050565b600060208201905081810360008301526151768161513a565b9050919050565b7f5468657265206172652073696d696c6172206974656d7320696e20646574616960008201527f6c73000000000000000000000000000000000000000000000000000000000000602082015250565b60006151d9602283614866565b91506151e48261517d565b604082019050919050565b60006020820190508181036000830152615208816151cc565b9050919050565b600061521a82613d0c565b915060ff82141561522e5761522d6148e3565b5b60018201905091905056fea26469706673582212204d7e597c64831e2749024cccb5b7de16ec7724cc8e5924337836afd185f9df3964736f6c634300080c0033",
  "immutableReferences": {},
  "source": "// SPDX-License-Identifier: MIT\npragma solidity >=0.4.22 <0.9.0;\n// bytes8 = 8 char , bytes16 = 16 char , bytes32 = 32 char ...ect\n// uint8 = 0-255 ,\n// to test new commit\n// new\n\n// name\n// phoneNo\n// id\n// address\n//\ncontract BindingContract {\n\n    struct Company {\n        uint64 companyId;\n        address companyAddress;\n        bytes16 name;\n        bytes16 phoneNo;\n        bytes16 specification;\n        bytes16 password;\n    }\n\n    struct Municipality {\n        uint64 municipalityId;\n        address municipalityAddress;\n        bytes16 name;\n        bytes16 phoneNo;\n        bytes16 password;\n    }\n\n    struct BindingData {\n        uint64 bindingId;\n        bytes16 name;\n        uint64 startDate;\n        uint64 endDate;\n        bytes16[] details;\n        uint8[] points;\n        address municipalityAddress;\n        bool isCanceled;\n        bool isOpened;\n        uint64 _winnerId;\n    }\n\n    struct RequestBinding {\n        uint64 requestId;\n        uint64 companyId;\n        bytes16 fullName;\n        bytes16 phoneNo;\n        uint32 price;\n        uint64 bindingId;\n        bytes16 [] details;\n        address companyAddress;\n        bool isWinner;\n    }\n\n    //-*-*-*-*--*-*-*-*--*-*-*-*--*-*-*-*--*-*-*-*--*-*-*-*--*-*-*-*--*-*-*-*--*-*-*-*--*-*-*-*--*-*-*-*-\n\n    mapping(address => Company) public company;\n    mapping(address => Municipality) public municipality;\n\n    function signUpCompany(uint64 _companyId,\n        bytes16 _name,\n        bytes16 _phoneNo, bytes16 _specification, bytes16 _password) public  payable returns (bool){\n        if (company[msg.sender].companyId == 0) {\n            company[msg.sender] = Company(_companyId, msg.sender, _name, _phoneNo, _specification, _password);\n            return true;\n        }\n        return false;\n    }\n\n    function signUpMunicipality(uint64 _municipalityId,\n        bytes16 _name,\n        bytes16 _phoneNo, bytes16 _password) public payable returns (bool){\n        if (municipality[msg.sender].municipalityId == 0) {\n            municipality[msg.sender] = Municipality(_municipalityId, msg.sender, _name, _phoneNo, _password);\n            return true;\n        }\n        return false;\n    }\n\n    function loginCompany(bytes16 password) public view returns (bool){\n        if (company[msg.sender].companyId != 0)\n        {\n            if (company[msg.sender].password == password) {\n                return true;\n            }\n\n        }\n        return false;\n    }\n\n    function loginMunicipality(bytes16 password) public view returns (bool){\n        if (municipality[msg.sender].municipalityId != 0)\n        {\n            if (municipality[msg.sender].password == password) {\n                return true;\n            }\n\n        }\n        return false;\n    }\n\n\n    uint64 bindingContractCount;\n    uint64 bindingRequestsCount;\n\n    constructor() {\n        bindingContractCount = 0;\n        bindingRequestsCount = 0;\n\n    }\n\n    mapping(uint64 => BindingData) public bindingContracts;\n\n\n    function createBindingContract(\n        bytes16 _name,\n        uint64 _startDate,\n        uint64 _endDate,\n        bytes16[] memory _details,\n        uint8[] memory _points,\n        bytes16 password\n    ) public payable {\n        require(password == municipality[msg.sender].password, \"password not correct\");\n        require(_details.length == _points.length, \"points not equal details\");\n        for (uint256 i = 0; i < _details.length; i++) {\n            require(!isRepeatedItem(_details, _details[i]), \"There are similar items in details\");\n        }\n        bindingContractCount++;\n        bindingContracts[bindingContractCount] = BindingData(\n            bindingContractCount,\n            _name,\n            _startDate,\n            _endDate,\n            _details,\n            _points,\n            msg.sender\n        , false, false, 0);\n\n    }\n\n\n    function getBindingContractsCount() public view returns (uint64) {\n        return bindingContractCount;\n    }\n\n    function getBindingById(uint64 bindingId)\n    public\n    view\n    returns (BindingData memory)\n    {\n        require(bindingId <= bindingContractCount, \"error in binding id\");\n        return bindingContracts[bindingId];\n    }\n\n\n    function getActiveBindingIds() public view returns (uint64[] memory) {\n        uint64 [] memory _bindingIds;\n        for (uint64 i = 1; i <= bindingContractCount; i++) {\n            if (isActive(i) && !bindingContracts[i].isCanceled && !bindingContracts[i].isOpened) {\n                _bindingIds[i - 1] = i;\n            }\n        }\n        return _bindingIds;\n    }\n\n    function getEndedBindingIds() public view returns (uint64[] memory) {\n        uint64 [] memory _bindingIds;\n        for (uint64 i = 1; i <= bindingContractCount; i++) {\n            if (!isActive(i) && !bindingContracts[i].isCanceled && !bindingContracts[i].isOpened) {\n                _bindingIds[i - 1] = i;\n            }\n        }\n        return _bindingIds;\n    }\n\n    function getOpenedBindingIds() public view returns (uint64 [] memory) {\n        uint64 [] memory _bindingIds;\n        for (uint64 i = 1; i <= bindingContractCount; i++) {\n            if (!isActive(i) && !bindingContracts[i].isCanceled && bindingContracts[i].isOpened) {\n                _bindingIds[i - 1] = i;\n            }\n        }\n        return _bindingIds;\n    }\n\n    function getCanceledBindingIds() public view returns (uint64 [] memory) {\n        uint64 [] memory _bindingIds;\n        for (uint64 i = 1; i <= bindingContractCount; i++) {\n            if (bindingContracts[i].isCanceled) {\n                _bindingIds[i - 1] = i;\n            }\n        }\n        return _bindingIds;\n    }\n\n    function getMunicipalityBindingIds(address municipalityAddress) public view returns (uint64 [] memory) {\n        uint64 [] memory _bindingIds;\n        for (uint64 i = 1; i <= bindingContractCount; i++) {\n            if (bindingContracts[i].municipalityAddress == municipalityAddress) {\n                _bindingIds[i - 1] = i;\n            }\n        }\n        return _bindingIds;\n    }\n\n\n    function openBinding(uint64 _bindingId, uint64 _requestId, bytes16 password) public payable {\n        require(password == municipality[msg.sender].password, \"password not correct\");\n        require(_bindingId <= bindingContractCount, \"invalid binding id\");\n        require(_requestId <= bindingContractCount, \"invalid request id\");\n        require(bindingRequests[_requestId].bindingId == _bindingId, \"this request id not in this binding \");\n        require(msg.sender == bindingContracts[_bindingId].municipalityAddress, \"you are not an owner of these binding contract \");\n        bindingContracts[_bindingId].isOpened = true;\n        bindingContracts[_bindingId]._winnerId = _requestId;\n        bindingRequests[_requestId].isWinner = true;\n\n    }\n\n\n    function cancelBinding(uint64 _bindingId, bytes16 password) public payable returns (bool){\n        require(password == municipality[msg.sender].password, \"password not correct\");\n        require(_bindingId <= bindingContractCount, \"binding contract not found\");\n        require(msg.sender == bindingContracts[_bindingId].municipalityAddress, \"you are not owner this binding contract\");\n        require(!bindingContracts[_bindingId].isCanceled, \"this binding contract already canceled\");\n        require(!bindingContracts[_bindingId].isOpened, \"this binding contract is opened\");\n        require(isActive(_bindingId), \"this binding contract is ended\");\n        bindingContracts[_bindingId].isCanceled = true;\n        return true;\n\n    }\n\n    function isActive(uint64 bindingId) public view returns (bool) {\n        if (bindingId <= bindingContractCount) {\n            if (\n                bindingContracts[bindingId].endDate >= block.timestamp\n                && bindingContracts[bindingId].startDate <= block.timestamp\n            ) {\n                return true;\n            }\n        }\n        return false;\n    }\n    //-*-*-*-*--*-*-*-*--*-*-*-*--*-*-*-*--*-*-*-*--*-*-*-*--*-*-*-*--*-*-*-*--*-*-*-*--*-*-*-*--*-*-*-*--*-*-*-*--*-*-*-*--*-*-*-*-\n\n\n    mapping(uint64 => RequestBinding) public bindingRequests;\n\n    function requestToBinding(\n        uint64 _companyId,\n        bytes16 _fullName,\n        bytes16 _phoneNo,\n        uint32 _price,\n        uint64 _bindingId,\n        bytes16 [] memory _details\n    , bytes16 password\n    ) public payable {\n        require(password == company[msg.sender].password, \"password not correct\");\n\n        require(isActive(_bindingId), \"this binding contract not active or binding id not valid\");\n        BindingData memory _bindingData = getBindingById(_bindingId);\n        bytes16 [] memory _bindingDetails = _bindingData.details;\n        require(_details.length <= _bindingDetails.length, \"invalid details , too much details \");\n        for (uint256 i = 0; i < _details.length; i++) {\n            require(searchInArray(_bindingDetails, _details[i]), \"invalid in details (details item not found)\");\n            require(!isRepeatedItem(_details, _details[i]), \"invalid in details (repeating element)\");\n        }\n\n        bindingRequestsCount++;\n        bindingRequests[bindingRequestsCount] = RequestBinding(\n            bindingRequestsCount,\n            _companyId,\n            _fullName,\n            _phoneNo,\n            _price,\n            _bindingId,\n            _details,\n            msg.sender,\n            false\n        );\n    }\n\n    function getBindingRequestByRequestId(uint64 _requestId)\n    public\n    view\n    returns (RequestBinding memory)\n    {\n        require(_requestId <= bindingRequestsCount, \"invalid request id\");\n        return bindingRequests[_requestId];\n    }\n\n    function getCompanyContractsRequestIds(address _companyAddress) public view\n    returns (uint64 [] memory)\n    {\n        uint64 [] memory contractRequestIds;\n        for (uint64 i = 1; i <= bindingRequestsCount; i++) {\n            if (bindingRequests[i].companyAddress == _companyAddress) {\n                contractRequestIds[i - 1] = i;\n            }\n        }\n        return contractRequestIds;\n    }\n\n    function getCompanyContractsRequestEndedIds(address _companyAddress) public view\n    returns (uint64 [] memory)\n    {\n        uint64 []memory contractRequestIds;\n        for (uint64 i = 1; i <= bindingRequestsCount; i++) {\n            if (bindingRequests[i].companyAddress == _companyAddress\n                && !isActive(i) && !bindingContracts[bindingRequests[i].bindingId].isOpened\n                && !bindingContracts[bindingRequests[i].bindingId].isCanceled) {\n                contractRequestIds[i - 1] = i;\n            }\n        }\n        return contractRequestIds;\n    }\n\n    function getCompanyContractsRequestOpenedIds(address _companyAddress) public view\n    returns (uint64 [] memory)\n    {\n        uint64 []memory contractRequestIds;\n        for (uint64 i = 1; i <= bindingRequestsCount; i++) {\n            if (bindingRequests[i].companyAddress == _companyAddress\n                && !isActive(i) && bindingContracts[bindingRequests[i].bindingId].isOpened\n                && !bindingContracts[bindingRequests[i].bindingId].isCanceled) {\n                contractRequestIds[i - 1] = i;\n            }\n        }\n        return contractRequestIds;\n    }\n\n    function getCompanyContractsRequestCanceledIds(address _companyAddress) public view\n    returns (uint64 [] memory)\n    {\n        uint64 [] memory contractRequestIds;\n        for (uint64 i = 1; i <= bindingRequestsCount; i++) {\n            if (bindingRequests[i].companyAddress == _companyAddress\n                && !isActive(i)\n                && bindingContracts[bindingRequests[i].bindingId].isCanceled) {\n                contractRequestIds[i - 1] = i;\n            }\n        }\n        return contractRequestIds;\n    }\n\n\n    function getBindingRequestCount() public view returns (uint64) {\n        return bindingRequestsCount;\n    }\n\n    function searchInArray(bytes16 [] memory array, bytes16 variable) public pure returns (bool){\n        for (uint i = 0; i < array.length; i++) {\n            if (array[i] == variable)\n                return true;\n        }\n        return false;\n    }\n\n    function isRepeatedItem(bytes16 [] memory array, bytes16 variable) public pure returns (bool){\n        uint8 count = 0;\n        for (uint i = 0; i < array.length; i++) {\n            if (array[i] == variable)\n                count++;\n            if (count >= 2)\n                break;\n        }\n        if (count == 1)\n            return false;\n        return true;\n    }\n\n}\n",
  "sourcePath": "/Users/ahmed/Desktop/solidity/binding_blockchain/contracts/BindingContract.sol",
  "compiler": {
    "name": "solc",
    "version": "0.8.12+commit.f00d7308.Emscripten.clang"
  },
  "schemaVersion": "3.4.7",
  "updatedAt": "2022-05-24T13:41:20.765Z",
  "networkType": "ethereum",
  "devdoc": {
    "kind": "dev",
    "methods": {},
    "version": 1
  },
  "userdoc": {
    "kind": "user",
    "methods": {},
    "version": 1
  }
}