{
  "contractName": "BindingContract",
  "abi": [
    {
      "inputs": [],
      "stateMutability": "nonpayable",
      "type": "constructor"
    },
    {
      "inputs": [
        {
          "internalType": "uint64",
          "name": "",
          "type": "uint64"
        }
      ],
      "name": "bindingContracts",
      "outputs": [
        {
          "internalType": "uint64",
          "name": "bindingId",
          "type": "uint64"
        },
        {
          "internalType": "bytes16",
          "name": "name",
          "type": "bytes16"
        },
        {
          "internalType": "uint64",
          "name": "startDate",
          "type": "uint64"
        },
        {
          "internalType": "uint64",
          "name": "endDate",
          "type": "uint64"
        },
        {
          "internalType": "address",
          "name": "municipalityAddress",
          "type": "address"
        },
        {
          "internalType": "bool",
          "name": "isCanceled",
          "type": "bool"
        },
        {
          "internalType": "bool",
          "name": "isOpened",
          "type": "bool"
        },
        {
          "internalType": "uint64",
          "name": "_winnerId",
          "type": "uint64"
        }
      ],
      "stateMutability": "view",
      "type": "function",
      "constant": true
    },
    {
      "inputs": [
        {
          "internalType": "uint64",
          "name": "",
          "type": "uint64"
        }
      ],
      "name": "bindingRequests",
      "outputs": [
        {
          "internalType": "uint64",
          "name": "requestId",
          "type": "uint64"
        },
        {
          "internalType": "uint64",
          "name": "companyId",
          "type": "uint64"
        },
        {
          "internalType": "bytes16",
          "name": "fullName",
          "type": "bytes16"
        },
        {
          "internalType": "bytes16",
          "name": "phoneNo",
          "type": "bytes16"
        },
        {
          "internalType": "uint32",
          "name": "price",
          "type": "uint32"
        },
        {
          "internalType": "uint64",
          "name": "bindingId",
          "type": "uint64"
        },
        {
          "internalType": "address",
          "name": "companyAddress",
          "type": "address"
        },
        {
          "internalType": "bool",
          "name": "isWinner",
          "type": "bool"
        }
      ],
      "stateMutability": "view",
      "type": "function",
      "constant": true
    },
    {
      "inputs": [
        {
          "internalType": "address",
          "name": "",
          "type": "address"
        }
      ],
      "name": "company",
      "outputs": [
        {
          "internalType": "uint64",
          "name": "companyId",
          "type": "uint64"
        },
        {
          "internalType": "address",
          "name": "companyAddress",
          "type": "address"
        },
        {
          "internalType": "bytes16",
          "name": "name",
          "type": "bytes16"
        },
        {
          "internalType": "bytes16",
          "name": "phoneNo",
          "type": "bytes16"
        },
        {
          "internalType": "bytes16",
          "name": "specification",
          "type": "bytes16"
        },
        {
          "internalType": "bytes16",
          "name": "password",
          "type": "bytes16"
        }
      ],
      "stateMutability": "view",
      "type": "function",
      "constant": true
    },
    {
      "inputs": [
        {
          "internalType": "address",
          "name": "",
          "type": "address"
        }
      ],
      "name": "municipality",
      "outputs": [
        {
          "internalType": "uint64",
          "name": "municipalityId",
          "type": "uint64"
        },
        {
          "internalType": "address",
          "name": "municipalityAddress",
          "type": "address"
        },
        {
          "internalType": "bytes16",
          "name": "name",
          "type": "bytes16"
        },
        {
          "internalType": "bytes16",
          "name": "phoneNo",
          "type": "bytes16"
        },
        {
          "internalType": "bytes16",
          "name": "password",
          "type": "bytes16"
        }
      ],
      "stateMutability": "view",
      "type": "function",
      "constant": true
    },
    {
      "inputs": [
        {
          "internalType": "uint64",
          "name": "_companyId",
          "type": "uint64"
        },
        {
          "internalType": "bytes16",
          "name": "_name",
          "type": "bytes16"
        },
        {
          "internalType": "bytes16",
          "name": "_phoneNo",
          "type": "bytes16"
        },
        {
          "internalType": "bytes16",
          "name": "_specification",
          "type": "bytes16"
        },
        {
          "internalType": "bytes16",
          "name": "_password",
          "type": "bytes16"
        }
      ],
      "name": "signUpCompany",
      "outputs": [],
      "stateMutability": "payable",
      "type": "function",
      "payable": true
    },
    {
      "inputs": [
        {
          "internalType": "uint64",
          "name": "_municipalityId",
          "type": "uint64"
        },
        {
          "internalType": "bytes16",
          "name": "_name",
          "type": "bytes16"
        },
        {
          "internalType": "bytes16",
          "name": "_phoneNo",
          "type": "bytes16"
        },
        {
          "internalType": "bytes16",
          "name": "_password",
          "type": "bytes16"
        }
      ],
      "name": "signUpMunicipality",
      "outputs": [],
      "stateMutability": "payable",
      "type": "function",
      "payable": true
    },
    {
      "inputs": [
        {
          "internalType": "bytes16",
          "name": "password",
          "type": "bytes16"
        }
      ],
      "name": "loginCompany",
      "outputs": [
        {
          "internalType": "bool",
          "name": "",
          "type": "bool"
        }
      ],
      "stateMutability": "view",
      "type": "function",
      "constant": true
    },
    {
      "inputs": [
        {
          "internalType": "bytes16",
          "name": "password",
          "type": "bytes16"
        }
      ],
      "name": "loginMunicipality",
      "outputs": [
        {
          "internalType": "bool",
          "name": "",
          "type": "bool"
        }
      ],
      "stateMutability": "view",
      "type": "function",
      "constant": true
    },
    {
      "inputs": [
        {
          "internalType": "bytes16",
          "name": "_name",
          "type": "bytes16"
        },
        {
          "internalType": "uint64",
          "name": "_startDate",
          "type": "uint64"
        },
        {
          "internalType": "uint64",
          "name": "_endDate",
          "type": "uint64"
        },
        {
          "internalType": "bytes16[]",
          "name": "_details",
          "type": "bytes16[]"
        },
        {
          "internalType": "uint8[]",
          "name": "_points",
          "type": "uint8[]"
        },
        {
          "internalType": "bytes16",
          "name": "password",
          "type": "bytes16"
        }
      ],
      "name": "createBindingContract",
      "outputs": [],
      "stateMutability": "payable",
      "type": "function",
      "payable": true
    },
    {
      "inputs": [
        {
          "internalType": "uint64",
          "name": "bindingId",
          "type": "uint64"
        }
      ],
      "name": "getBindingById",
      "outputs": [
        {
          "components": [
            {
              "internalType": "uint64",
              "name": "bindingId",
              "type": "uint64"
            },
            {
              "internalType": "bytes16",
              "name": "name",
              "type": "bytes16"
            },
            {
              "internalType": "uint64",
              "name": "startDate",
              "type": "uint64"
            },
            {
              "internalType": "uint64",
              "name": "endDate",
              "type": "uint64"
            },
            {
              "internalType": "bytes16[]",
              "name": "details",
              "type": "bytes16[]"
            },
            {
              "internalType": "uint8[]",
              "name": "points",
              "type": "uint8[]"
            },
            {
              "internalType": "address",
              "name": "municipalityAddress",
              "type": "address"
            },
            {
              "internalType": "bool",
              "name": "isCanceled",
              "type": "bool"
            },
            {
              "internalType": "bool",
              "name": "isOpened",
              "type": "bool"
            },
            {
              "internalType": "uint64",
              "name": "_winnerId",
              "type": "uint64"
            }
          ],
          "internalType": "struct BindingContract.BindingData",
          "name": "",
          "type": "tuple"
        }
      ],
      "stateMutability": "view",
      "type": "function",
      "constant": true
    },
    {
      "inputs": [
        {
          "internalType": "uint8",
          "name": "_bidType",
          "type": "uint8"
        },
        {
          "internalType": "address",
          "name": "_address",
          "type": "address"
        }
      ],
      "name": "getBindings",
      "outputs": [
        {
          "components": [
            {
              "internalType": "uint64",
              "name": "bindingId",
              "type": "uint64"
            },
            {
              "internalType": "bytes16",
              "name": "name",
              "type": "bytes16"
            },
            {
              "internalType": "uint64",
              "name": "startDate",
              "type": "uint64"
            },
            {
              "internalType": "uint64",
              "name": "endDate",
              "type": "uint64"
            },
            {
              "internalType": "bytes16[]",
              "name": "details",
              "type": "bytes16[]"
            },
            {
              "internalType": "uint8[]",
              "name": "points",
              "type": "uint8[]"
            },
            {
              "internalType": "address",
              "name": "municipalityAddress",
              "type": "address"
            },
            {
              "internalType": "bool",
              "name": "isCanceled",
              "type": "bool"
            },
            {
              "internalType": "bool",
              "name": "isOpened",
              "type": "bool"
            },
            {
              "internalType": "uint64",
              "name": "_winnerId",
              "type": "uint64"
            }
          ],
          "internalType": "struct BindingContract.BindingData[]",
          "name": "",
          "type": "tuple[]"
        }
      ],
      "stateMutability": "view",
      "type": "function",
      "constant": true
    },
    {
      "inputs": [
        {
          "internalType": "uint64",
          "name": "_bindingId",
          "type": "uint64"
        },
        {
          "internalType": "uint64",
          "name": "_requestId",
          "type": "uint64"
        },
        {
          "internalType": "bytes16",
          "name": "password",
          "type": "bytes16"
        }
      ],
      "name": "openBinding",
      "outputs": [],
      "stateMutability": "payable",
      "type": "function",
      "payable": true
    },
    {
      "inputs": [
        {
          "internalType": "uint64",
          "name": "_bindingId",
          "type": "uint64"
        },
        {
          "internalType": "bytes16",
          "name": "password",
          "type": "bytes16"
        }
      ],
      "name": "cancelBinding",
      "outputs": [
        {
          "internalType": "bool",
          "name": "",
          "type": "bool"
        }
      ],
      "stateMutability": "payable",
      "type": "function",
      "payable": true
    },
    {
      "inputs": [
        {
          "internalType": "uint64",
          "name": "bindingId",
          "type": "uint64"
        }
      ],
      "name": "isActive",
      "outputs": [
        {
          "internalType": "bool",
          "name": "",
          "type": "bool"
        }
      ],
      "stateMutability": "view",
      "type": "function",
      "constant": true
    },
    {
      "inputs": [
        {
          "internalType": "uint64",
          "name": "_companyId",
          "type": "uint64"
        },
        {
          "internalType": "bytes16",
          "name": "_fullName",
          "type": "bytes16"
        },
        {
          "internalType": "bytes16",
          "name": "_phoneNo",
          "type": "bytes16"
        },
        {
          "internalType": "uint32",
          "name": "_price",
          "type": "uint32"
        },
        {
          "internalType": "uint64",
          "name": "_bindingId",
          "type": "uint64"
        },
        {
          "internalType": "bytes16[]",
          "name": "_details",
          "type": "bytes16[]"
        },
        {
          "internalType": "bytes16",
          "name": "password",
          "type": "bytes16"
        }
      ],
      "name": "requestToBinding",
      "outputs": [],
      "stateMutability": "payable",
      "type": "function",
      "payable": true
    },
    {
      "inputs": [
        {
          "internalType": "uint64",
          "name": "_requestId",
          "type": "uint64"
        }
      ],
      "name": "getBindingRequestByRequestId",
      "outputs": [
        {
          "components": [
            {
              "internalType": "uint64",
              "name": "requestId",
              "type": "uint64"
            },
            {
              "internalType": "uint64",
              "name": "companyId",
              "type": "uint64"
            },
            {
              "internalType": "bytes16",
              "name": "fullName",
              "type": "bytes16"
            },
            {
              "internalType": "bytes16",
              "name": "phoneNo",
              "type": "bytes16"
            },
            {
              "internalType": "uint32",
              "name": "price",
              "type": "uint32"
            },
            {
              "internalType": "uint64",
              "name": "bindingId",
              "type": "uint64"
            },
            {
              "internalType": "bytes16[]",
              "name": "details",
              "type": "bytes16[]"
            },
            {
              "internalType": "address",
              "name": "companyAddress",
              "type": "address"
            },
            {
              "internalType": "bool",
              "name": "isWinner",
              "type": "bool"
            }
          ],
          "internalType": "struct BindingContract.RequestBinding",
          "name": "",
          "type": "tuple"
        }
      ],
      "stateMutability": "view",
      "type": "function",
      "constant": true
    },
    {
      "inputs": [
        {
          "internalType": "address",
          "name": "_companyAddress",
          "type": "address"
        },
        {
          "internalType": "uint64",
          "name": "_bindingId",
          "type": "uint64"
        }
      ],
      "name": "getContractsRequest",
      "outputs": [
        {
          "components": [
            {
              "internalType": "uint64",
              "name": "requestId",
              "type": "uint64"
            },
            {
              "internalType": "uint64",
              "name": "companyId",
              "type": "uint64"
            },
            {
              "internalType": "bytes16",
              "name": "fullName",
              "type": "bytes16"
            },
            {
              "internalType": "bytes16",
              "name": "phoneNo",
              "type": "bytes16"
            },
            {
              "internalType": "uint32",
              "name": "price",
              "type": "uint32"
            },
            {
              "internalType": "uint64",
              "name": "bindingId",
              "type": "uint64"
            },
            {
              "internalType": "bytes16[]",
              "name": "details",
              "type": "bytes16[]"
            },
            {
              "internalType": "address",
              "name": "companyAddress",
              "type": "address"
            },
            {
              "internalType": "bool",
              "name": "isWinner",
              "type": "bool"
            }
          ],
          "internalType": "struct BindingContract.RequestBinding[]",
          "name": "",
          "type": "tuple[]"
        }
      ],
      "stateMutability": "view",
      "type": "function",
      "constant": true
    },
    {
      "inputs": [
        {
          "internalType": "bytes16[]",
          "name": "array",
          "type": "bytes16[]"
        },
        {
          "internalType": "bytes16",
          "name": "variable",
          "type": "bytes16"
        }
      ],
      "name": "searchInArray",
      "outputs": [
        {
          "internalType": "bool",
          "name": "",
          "type": "bool"
        }
      ],
      "stateMutability": "pure",
      "type": "function",
      "constant": true
    },
    {
      "inputs": [
        {
          "internalType": "bytes16[]",
          "name": "array",
          "type": "bytes16[]"
        },
        {
          "internalType": "bytes16",
          "name": "variable",
          "type": "bytes16"
        }
      ],
      "name": "isRepeatedItem",
      "outputs": [
        {
          "internalType": "bool",
          "name": "",
          "type": "bool"
        }
      ],
      "stateMutability": "pure",
      "type": "function",
      "constant": true
    }
  ],
  "bytecode": "0x608060405234801561001057600080fd5b506000600260006101000a81548167ffffffffffffffff021916908367ffffffffffffffff1602179055506000600260086101000a81548167ffffffffffffffff021916908367ffffffffffffffff160217905550615f1180620000756000396000f3fe6080604052600436106101145760003560e01c80636454b3b6116100a0578063c44f45fe11610064578063c44f45fe146103e9578063d3b9207a1461042b578063e6125de714610468578063f2c62f32146104a5578063fb809839146104c157610114565b80636454b3b6146103495780638e1def571461037957806393788036146103955780639b8dab81146103b15780639c6bec79146103cd57610114565b806334abcac9116100e757806334abcac91461021157806339d13f301461024e5780633d86dea41461028b578063509185d7146102cf578063511eb8c01461030c57610114565b80631a4d0aae14610119578063232dd1571461015a578063247d173614610197578063280486e1146101d4575b600080fd5b34801561012557600080fd5b50610140600480360381019061013b919061489c565b610505565b604051610151959493929190614936565b60405180910390f35b34801561016657600080fd5b50610181600480360381019061017c91906149b5565b610596565b60405161018e9190614c85565b60405180910390f35b3480156101a357600080fd5b506101be60048036038101906101b99190614cd3565b6108e2565b6040516101cb9190614d0f565b60405180910390f35b3480156101e057600080fd5b506101fb60048036038101906101f69190614d2a565b6109da565b6040516102089190614f10565b60405180910390f35b34801561021d57600080fd5b50610238600480360381019061023391906149b5565b6111e7565b6040516102459190614d0f565b60405180910390f35b34801561025a57600080fd5b50610275600480360381019061027091906149b5565b6112d3565b6040516102829190614ff7565b60405180910390f35b34801561029757600080fd5b506102b260048036038101906102ad91906149b5565b6115b7565b6040516102c6989796959493929190615019565b60405180910390f35b3480156102db57600080fd5b506102f660048036038101906102f19190614cd3565b611696565b6040516103039190614d0f565b60405180910390f35b34801561031857600080fd5b50610333600480360381019061032e91906151f0565b611790565b6040516103409190614d0f565b60405180910390f35b610363600480360381019061035e919061524c565b611812565b6040516103709190614d0f565b60405180910390f35b610393600480360381019061038e91906152b8565b611ad0565b005b6103af60048036038101906103aa9190615376565b611fc3565b005b6103cb60048036038101906103c691906154b8565b61230e565b005b6103e760048036038101906103e2919061557d565b612785565b005b3480156103f557600080fd5b50610410600480360381019061040b919061489c565b612a3e565b604051610422969594939291906155f8565b60405180910390f35b34801561043757600080fd5b50610452600480360381019061044d91906151f0565b612ae2565b60405161045f9190614d0f565b60405180910390f35b34801561047457600080fd5b5061048f600480360381019061048a9190615659565b612b92565b60405161049c919061583c565b60405180910390f35b6104bf60048036038101906104ba919061585e565b6141ff565b005b3480156104cd57600080fd5b506104e860048036038101906104e391906149b5565b614470565b6040516104fc9897969594939291906158d4565b60405180910390f35b60016020528060005260406000206000915090508060000160009054906101000a900467ffffffffffffffff16908060000160089054906101000a900473ffffffffffffffffffffffffffffffffffffffff16908060010160009054906101000a900460801b908060010160109054906101000a900460801b908060020160009054906101000a900460801b905085565b61059e61454b565b600260009054906101000a900467ffffffffffffffff1667ffffffffffffffff168267ffffffffffffffff16111561060b576040517f08c379a0000000000000000000000000000000000000000000000000000000008152600401610602906159af565b60405180910390fd5b600360008367ffffffffffffffff1667ffffffffffffffff168152602001908152602001600020604051806101400160405290816000820160009054906101000a900467ffffffffffffffff1667ffffffffffffffff1667ffffffffffffffff1681526020016000820160089054906101000a900460801b6fffffffffffffffffffffffffffffffff19166fffffffffffffffffffffffffffffffff191681526020016000820160189054906101000a900467ffffffffffffffff1667ffffffffffffffff1667ffffffffffffffff1681526020016001820160009054906101000a900467ffffffffffffffff1667ffffffffffffffff1667ffffffffffffffff1681526020016002820180548060200260200160405190810160405280929190818152602001828054801561079657602002820191906000526020600020906000905b82829054906101000a900460801b6fffffffffffffffffffffffffffffffff191681526020019060100190602082600f0104928301926001038202915080841161074f5790505b505050505081526020016003820180548060200260200160405190810160405280929190818152602001828054801561081457602002820191906000526020600020906000905b82829054906101000a900460ff1660ff16815260200190600101906020826000010492830192600103820291508084116107dd5790505b505050505081526020016004820160009054906101000a900473ffffffffffffffffffffffffffffffffffffffff1673ffffffffffffffffffffffffffffffffffffffff1673ffffffffffffffffffffffffffffffffffffffff1681526020016004820160149054906101000a900460ff161515151581526020016004820160159054906101000a900460ff161515151581526020016004820160169054906101000a900467ffffffffffffffff1667ffffffffffffffff1667ffffffffffffffff16815250509050919050565b6000806000803373ffffffffffffffffffffffffffffffffffffffff1673ffffffffffffffffffffffffffffffffffffffff16815260200190815260200160002060000160009054906101000a900467ffffffffffffffff1667ffffffffffffffff16146109d057816fffffffffffffffffffffffffffffffff19166000803373ffffffffffffffffffffffffffffffffffffffff1673ffffffffffffffffffffffffffffffffffffffff16815260200190815260200160002060020160109054906101000a900460801b6fffffffffffffffffffffffffffffffff191614156109cf57600190506109d5565b5b600090505b919050565b60606000600260089054906101000a900467ffffffffffffffff1667ffffffffffffffff1667ffffffffffffffff811115610a1857610a176150ad565b5b604051908082528060200260200182016040528015610a5157816020015b610a3e6145f3565b815260200190600190039081610a365790505b50905060008080600190505b600260089054906101000a900467ffffffffffffffff1667ffffffffffffffff168167ffffffffffffffff1611611170578173ffffffffffffffffffffffffffffffffffffffff168773ffffffffffffffffffffffffffffffffffffffff1614158015610ad4575060008667ffffffffffffffff16145b8015610b5557508673ffffffffffffffffffffffffffffffffffffffff16600460008367ffffffffffffffff1667ffffffffffffffff16815260200190815260200160002060030160009054906101000a900473ffffffffffffffffffffffffffffffffffffffff1673ffffffffffffffffffffffffffffffffffffffff16145b15610e0957600460008267ffffffffffffffff1667ffffffffffffffff168152602001908152602001600020604051806101200160405290816000820160009054906101000a900467ffffffffffffffff1667ffffffffffffffff1667ffffffffffffffff1681526020016000820160089054906101000a900467ffffffffffffffff1667ffffffffffffffff1667ffffffffffffffff1681526020016000820160109054906101000a900460801b6fffffffffffffffffffffffffffffffff19166fffffffffffffffffffffffffffffffff191681526020016001820160009054906101000a900460801b6fffffffffffffffffffffffffffffffff19166fffffffffffffffffffffffffffffffff191681526020016001820160109054906101000a900463ffffffff1663ffffffff1663ffffffff1681526020016001820160149054906101000a900467ffffffffffffffff1667ffffffffffffffff1667ffffffffffffffff16815260200160028201805480602002602001604051908101604052809291908181526020018280548015610d4857602002820191906000526020600020906000905b82829054906101000a900460801b6fffffffffffffffffffffffffffffffff191681526020019060100190602082600f01049283019260010382029150808411610d015790505b505050505081526020016003820160009054906101000a900473ffffffffffffffffffffffffffffffffffffffff1673ffffffffffffffffffffffffffffffffffffffff1673ffffffffffffffffffffffffffffffffffffffff1681526020016003820160149054906101000a900460ff16151515158152505084600183610dd091906159fe565b67ffffffffffffffff1681518110610deb57610dea615a32565b5b60200260200101819052508280610e0190615a61565b93505061115d565b8173ffffffffffffffffffffffffffffffffffffffff168773ffffffffffffffffffffffffffffffffffffffff16148015610e4f575060008667ffffffffffffffff1614155b8015610eac57508567ffffffffffffffff16600460008367ffffffffffffffff1667ffffffffffffffff16815260200190815260200160002060010160149054906101000a900467ffffffffffffffff1667ffffffffffffffff16145b1561115c57600460008267ffffffffffffffff1667ffffffffffffffff168152602001908152602001600020604051806101200160405290816000820160009054906101000a900467ffffffffffffffff1667ffffffffffffffff1667ffffffffffffffff1681526020016000820160089054906101000a900467ffffffffffffffff1667ffffffffffffffff1667ffffffffffffffff1681526020016000820160109054906101000a900460801b6fffffffffffffffffffffffffffffffff19166fffffffffffffffffffffffffffffffff191681526020016001820160009054906101000a900460801b6fffffffffffffffffffffffffffffffff19166fffffffffffffffffffffffffffffffff191681526020016001820160109054906101000a900463ffffffff1663ffffffff1663ffffffff1681526020016001820160149054906101000a900467ffffffffffffffff1667ffffffffffffffff1667ffffffffffffffff1681526020016002820180548060200260200160405190810160405280929190818152602001828054801561109f57602002820191906000526020600020906000905b82829054906101000a900460801b6fffffffffffffffffffffffffffffffff191681526020019060100190602082600f010492830192600103820291508084116110585790505b505050505081526020016003820160009054906101000a900473ffffffffffffffffffffffffffffffffffffffff1673ffffffffffffffffffffffffffffffffffffffff1673ffffffffffffffffffffffffffffffffffffffff1681526020016003820160149054906101000a900460ff1615151515815250508460018361112791906159fe565b67ffffffffffffffff168151811061114257611141615a32565b5b6020026020010181905250828061115890615a61565b9350505b5b808061116890615a61565b915050610a5d565b5060008267ffffffffffffffff1667ffffffffffffffff811115611197576111966150ad565b5b6040519080825280602002602001820160405280156111d057816020015b6111bd6145f3565b8152602001906001900390816111b55790505b509050839050606093508094505050505092915050565b6000600260009054906101000a900467ffffffffffffffff1667ffffffffffffffff168267ffffffffffffffff16116112c95742600360008467ffffffffffffffff1667ffffffffffffffff16815260200190815260200160002060010160009054906101000a900467ffffffffffffffff1667ffffffffffffffff16101580156112ba575042600360008467ffffffffffffffff1667ffffffffffffffff16815260200190815260200160002060000160189054906101000a900467ffffffffffffffff1667ffffffffffffffff1611155b156112c857600190506112ce565b5b600090505b919050565b6112db6145f3565b600260089054906101000a900467ffffffffffffffff1667ffffffffffffffff168267ffffffffffffffff161115611348576040517f08c379a000000000000000000000000000000000000000000000000000000000815260040161133f906159af565b60405180910390fd5b600460008367ffffffffffffffff1667ffffffffffffffff168152602001908152602001600020604051806101200160405290816000820160009054906101000a900467ffffffffffffffff1667ffffffffffffffff1667ffffffffffffffff1681526020016000820160089054906101000a900467ffffffffffffffff1667ffffffffffffffff1667ffffffffffffffff1681526020016000820160109054906101000a900460801b6fffffffffffffffffffffffffffffffff19166fffffffffffffffffffffffffffffffff191681526020016001820160009054906101000a900460801b6fffffffffffffffffffffffffffffffff19166fffffffffffffffffffffffffffffffff191681526020016001820160109054906101000a900463ffffffff1663ffffffff1663ffffffff1681526020016001820160149054906101000a900467ffffffffffffffff1667ffffffffffffffff1667ffffffffffffffff1681526020016002820180548060200260200160405190810160405280929190818152602001828054801561153657602002820191906000526020600020906000905b82829054906101000a900460801b6fffffffffffffffffffffffffffffffff191681526020019060100190602082600f010492830192600103820291508084116114ef5790505b505050505081526020016003820160009054906101000a900473ffffffffffffffffffffffffffffffffffffffff1673ffffffffffffffffffffffffffffffffffffffff1673ffffffffffffffffffffffffffffffffffffffff1681526020016003820160149054906101000a900460ff1615151515815250509050919050565b60036020528060005260406000206000915090508060000160009054906101000a900467ffffffffffffffff16908060000160089054906101000a900460801b908060000160189054906101000a900467ffffffffffffffff16908060010160009054906101000a900467ffffffffffffffff16908060040160009054906101000a900473ffffffffffffffffffffffffffffffffffffffff16908060040160149054906101000a900460ff16908060040160159054906101000a900460ff16908060040160169054906101000a900467ffffffffffffffff16905088565b600080600160003373ffffffffffffffffffffffffffffffffffffffff1673ffffffffffffffffffffffffffffffffffffffff16815260200190815260200160002060000160009054906101000a900467ffffffffffffffff1667ffffffffffffffff161461178657816fffffffffffffffffffffffffffffffff1916600160003373ffffffffffffffffffffffffffffffffffffffff1673ffffffffffffffffffffffffffffffffffffffff16815260200190815260200160002060020160009054906101000a900460801b6fffffffffffffffffffffffffffffffff19161415611785576001905061178b565b5b600090505b919050565b600080600090505b835181101561180657826fffffffffffffffffffffffffffffffff19168482815181106117c8576117c7615a32565b5b60200260200101516fffffffffffffffffffffffffffffffff191614156117f357600191505061180c565b80806117fe90615a9c565b915050611798565b50600090505b92915050565b6000600260009054906101000a900467ffffffffffffffff1667ffffffffffffffff168367ffffffffffffffff16111580156118535750611852836111e7565b5b80156118945750600360008467ffffffffffffffff1667ffffffffffffffff16815260200190815260200160002060040160149054906101000a900460ff16155b80156118d55750600360008467ffffffffffffffff1667ffffffffffffffff16815260200190815260200160002060040160159054906101000a900460ff16155b611914576040517f08c379a000000000000000000000000000000000000000000000000000000000815260040161190b90615b31565b60405180910390fd5b600160003373ffffffffffffffffffffffffffffffffffffffff1673ffffffffffffffffffffffffffffffffffffffff16815260200190815260200160002060020160009054906101000a900460801b6fffffffffffffffffffffffffffffffff1916826fffffffffffffffffffffffffffffffff1916146119cb576040517f08c379a00000000000000000000000000000000000000000000000000000000081526004016119c290615b9d565b60405180910390fd5b600360008467ffffffffffffffff1667ffffffffffffffff16815260200190815260200160002060040160009054906101000a900473ffffffffffffffffffffffffffffffffffffffff1673ffffffffffffffffffffffffffffffffffffffff163373ffffffffffffffffffffffffffffffffffffffff1614611a83576040517f08c379a0000000000000000000000000000000000000000000000000000000008152600401611a7a90615c09565b60405180910390fd5b6001600360008567ffffffffffffffff1667ffffffffffffffff16815260200190815260200160002060040160146101000a81548160ff0219169083151502179055506001905092915050565b6000803373ffffffffffffffffffffffffffffffffffffffff1673ffffffffffffffffffffffffffffffffffffffff16815260200190815260200160002060020160109054906101000a900460801b6fffffffffffffffffffffffffffffffff1916816fffffffffffffffffffffffffffffffff191614611b86576040517f08c379a0000000000000000000000000000000000000000000000000000000008152600401611b7d90615b9d565b60405180910390fd5b611b8f836111e7565b611bce576040517f08c379a0000000000000000000000000000000000000000000000000000000008152600401611bc590615c75565b60405180910390fd5b6000611bd984610596565b9050600081608001519050805184511115611c29576040517f08c379a0000000000000000000000000000000000000000000000000000000008152600401611c2090615ce1565b60405180910390fd5b60005b8451811015611cd857611c5985868381518110611c4c57611c4b615a32565b5b6020026020010151612ae2565b158015611c865750611c8582868381518110611c7857611c77615a32565b5b6020026020010151611790565b5b611cc5576040517f08c379a0000000000000000000000000000000000000000000000000000000008152600401611cbc90615d4d565b60405180910390fd5b8080611cd090615a9c565b915050611c2c565b506002600881819054906101000a900467ffffffffffffffff1680929190611cff90615a61565b91906101000a81548167ffffffffffffffff021916908367ffffffffffffffff16021790555050604051806101200160405280600260089054906101000a900467ffffffffffffffff1667ffffffffffffffff1681526020018a67ffffffffffffffff168152602001896fffffffffffffffffffffffffffffffff19168152602001886fffffffffffffffffffffffffffffffff191681526020018763ffffffff1681526020018667ffffffffffffffff1681526020018581526020013373ffffffffffffffffffffffffffffffffffffffff1681526020016000151581525060046000600260089054906101000a900467ffffffffffffffff1667ffffffffffffffff1667ffffffffffffffff16815260200190815260200160002060008201518160000160006101000a81548167ffffffffffffffff021916908367ffffffffffffffff16021790555060208201518160000160086101000a81548167ffffffffffffffff021916908367ffffffffffffffff16021790555060408201518160000160106101000a8154816fffffffffffffffffffffffffffffffff021916908360801c021790555060608201518160010160006101000a8154816fffffffffffffffffffffffffffffffff021916908360801c021790555060808201518160010160106101000a81548163ffffffff021916908363ffffffff16021790555060a08201518160010160146101000a81548167ffffffffffffffff021916908367ffffffffffffffff16021790555060c0820151816002019080519060200190611f4c9291906146a1565b5060e08201518160030160006101000a81548173ffffffffffffffffffffffffffffffffffffffff021916908373ffffffffffffffffffffffffffffffffffffffff1602179055506101008201518160030160146101000a81548160ff021916908315150217905550905050505050505050505050565b600260009054906101000a900467ffffffffffffffff1667ffffffffffffffff168367ffffffffffffffff16111580156120275750600260089054906101000a900467ffffffffffffffff1667ffffffffffffffff168267ffffffffffffffff1611155b801561208457508267ffffffffffffffff16600460008467ffffffffffffffff1667ffffffffffffffff16815260200190815260200160002060010160149054906101000a900467ffffffffffffffff1667ffffffffffffffff16145b6120c3576040517f08c379a00000000000000000000000000000000000000000000000000000000081526004016120ba906159af565b60405180910390fd5b600160003373ffffffffffffffffffffffffffffffffffffffff1673ffffffffffffffffffffffffffffffffffffffff16815260200190815260200160002060020160009054906101000a900460801b6fffffffffffffffffffffffffffffffff1916816fffffffffffffffffffffffffffffffff19161461217a576040517f08c379a000000000000000000000000000000000000000000000000000000000815260040161217190615b9d565b60405180910390fd5b600360008467ffffffffffffffff1667ffffffffffffffff16815260200190815260200160002060040160009054906101000a900473ffffffffffffffffffffffffffffffffffffffff1673ffffffffffffffffffffffffffffffffffffffff163373ffffffffffffffffffffffffffffffffffffffff1614612232576040517f08c379a000000000000000000000000000000000000000000000000000000000815260040161222990615c09565b60405180910390fd5b6001600360008567ffffffffffffffff1667ffffffffffffffff16815260200190815260200160002060040160156101000a81548160ff02191690831515021790555081600360008567ffffffffffffffff1667ffffffffffffffff16815260200190815260200160002060040160166101000a81548167ffffffffffffffff021916908367ffffffffffffffff1602179055506001600460008467ffffffffffffffff1667ffffffffffffffff16815260200190815260200160002060030160146101000a81548160ff021916908315150217905550505050565b600160003373ffffffffffffffffffffffffffffffffffffffff1673ffffffffffffffffffffffffffffffffffffffff16815260200190815260200160002060020160009054906101000a900460801b6fffffffffffffffffffffffffffffffff1916816fffffffffffffffffffffffffffffffff1916146123c5576040517f08c379a00000000000000000000000000000000000000000000000000000000081526004016123bc90615b9d565b60405180910390fd5b8151835114612409576040517f08c379a000000000000000000000000000000000000000000000000000000000815260040161240090615db9565b60405180910390fd5b60005b835181101561248c576124398485838151811061242c5761242b615a32565b5b6020026020010151612ae2565b15612479576040517f08c379a000000000000000000000000000000000000000000000000000000000815260040161247090615e25565b60405180910390fd5b808061248490615a9c565b91505061240c565b506002600081819054906101000a900467ffffffffffffffff16809291906124b390615a61565b91906101000a81548167ffffffffffffffff021916908367ffffffffffffffff16021790555050604051806101400160405280600260009054906101000a900467ffffffffffffffff1667ffffffffffffffff168152602001876fffffffffffffffffffffffffffffffff191681526020018667ffffffffffffffff1681526020018567ffffffffffffffff1681526020018481526020018381526020013373ffffffffffffffffffffffffffffffffffffffff168152602001600015158152602001600015158152602001600067ffffffffffffffff1681525060036000600260009054906101000a900467ffffffffffffffff1667ffffffffffffffff1667ffffffffffffffff16815260200190815260200160002060008201518160000160006101000a81548167ffffffffffffffff021916908367ffffffffffffffff16021790555060208201518160000160086101000a8154816fffffffffffffffffffffffffffffffff021916908360801c021790555060408201518160000160186101000a81548167ffffffffffffffff021916908367ffffffffffffffff16021790555060608201518160010160006101000a81548167ffffffffffffffff021916908367ffffffffffffffff16021790555060808201518160020190805190602001906126a49291906146a1565b5060a08201518160030190805190602001906126c1929190614766565b5060c08201518160040160006101000a81548173ffffffffffffffffffffffffffffffffffffffff021916908373ffffffffffffffffffffffffffffffffffffffff16021790555060e08201518160040160146101000a81548160ff0219169083151502179055506101008201518160040160156101000a81548160ff0219169083151502179055506101208201518160040160166101000a81548167ffffffffffffffff021916908367ffffffffffffffff160217905550905050505050505050565b60008060003373ffffffffffffffffffffffffffffffffffffffff1673ffffffffffffffffffffffffffffffffffffffff16815260200190815260200160002060000160009054906101000a900467ffffffffffffffff1667ffffffffffffffff1614612827576040517f08c379a000000000000000000000000000000000000000000000000000000000815260040161281e90615e91565b60405180910390fd5b6040518060c001604052808667ffffffffffffffff1681526020013373ffffffffffffffffffffffffffffffffffffffff168152602001856fffffffffffffffffffffffffffffffff19168152602001846fffffffffffffffffffffffffffffffff19168152602001836fffffffffffffffffffffffffffffffff19168152602001826fffffffffffffffffffffffffffffffff19168152506000803373ffffffffffffffffffffffffffffffffffffffff1673ffffffffffffffffffffffffffffffffffffffff16815260200190815260200160002060008201518160000160006101000a81548167ffffffffffffffff021916908367ffffffffffffffff16021790555060208201518160000160086101000a81548173ffffffffffffffffffffffffffffffffffffffff021916908373ffffffffffffffffffffffffffffffffffffffff16021790555060408201518160010160006101000a8154816fffffffffffffffffffffffffffffffff021916908360801c021790555060608201518160010160106101000a8154816fffffffffffffffffffffffffffffffff021916908360801c021790555060808201518160020160006101000a8154816fffffffffffffffffffffffffffffffff021916908360801c021790555060a08201518160020160106101000a8154816fffffffffffffffffffffffffffffffff021916908360801c02179055509050505050505050565b60006020528060005260406000206000915090508060000160009054906101000a900467ffffffffffffffff16908060000160089054906101000a900473ffffffffffffffffffffffffffffffffffffffff16908060010160009054906101000a900460801b908060010160109054906101000a900460801b908060020160009054906101000a900460801b908060020160109054906101000a900460801b905086565b6000806000905060005b8451811015612b6f57836fffffffffffffffffffffffffffffffff1916858281518110612b1c57612b1b615a32565b5b60200260200101516fffffffffffffffffffffffffffffffff19161415612b4c578180612b4890615eb1565b9250505b60028260ff1610612b5c57612b6f565b8080612b6790615a9c565b915050612aec565b5060018160ff161415612b86576000915050612b8c565b60019150505b92915050565b60606000600260009054906101000a900467ffffffffffffffff1667ffffffffffffffff1667ffffffffffffffff811115612bd057612bcf6150ad565b5b604051908082528060200260200182016040528015612c0957816020015b612bf661454b565b815260200190600190039081612bee5790505b509050600080600090506000600190505b600260009054906101000a900467ffffffffffffffff1667ffffffffffffffff168167ffffffffffffffff16116141885760018760ff161415613023578273ffffffffffffffffffffffffffffffffffffffff168673ffffffffffffffffffffffffffffffffffffffff161480612d065750600360008267ffffffffffffffff1667ffffffffffffffff16815260200190815260200160002060040160009054906101000a900473ffffffffffffffffffffffffffffffffffffffff1673ffffffffffffffffffffffffffffffffffffffff168673ffffffffffffffffffffffffffffffffffffffff16145b1561301e57600360008267ffffffffffffffff1667ffffffffffffffff168152602001908152602001600020604051806101400160405290816000820160009054906101000a900467ffffffffffffffff1667ffffffffffffffff1667ffffffffffffffff1681526020016000820160089054906101000a900460801b6fffffffffffffffffffffffffffffffff19166fffffffffffffffffffffffffffffffff191681526020016000820160189054906101000a900467ffffffffffffffff1667ffffffffffffffff1667ffffffffffffffff1681526020016001820160009054906101000a900467ffffffffffffffff1667ffffffffffffffff1667ffffffffffffffff16815260200160028201805480602002602001604051908101604052809291908181526020018280548015612e9657602002820191906000526020600020906000905b82829054906101000a900460801b6fffffffffffffffffffffffffffffffff191681526020019060100190602082600f01049283019260010382029150808411612e4f5790505b5050505050815260200160038201805480602002602001604051908101604052809291908181526020018280548015612f1457602002820191906000526020600020906000905b82829054906101000a900460ff1660ff1681526020019060010190602082600001049283019260010382029150808411612edd5790505b505050505081526020016004820160009054906101000a900473ffffffffffffffffffffffffffffffffffffffff1673ffffffffffffffffffffffffffffffffffffffff1673ffffffffffffffffffffffffffffffffffffffff1681526020016004820160149054906101000a900460ff161515151581526020016004820160159054906101000a900460ff161515151581526020016004820160169054906101000a900467ffffffffffffffff1667ffffffffffffffff1667ffffffffffffffff168152505084600183612fe991906159fe565b67ffffffffffffffff168151811061300457613003615a32565b5b6020026020010181905250818061301a90615a61565b9250505b614175565b60028760ff16141561348c57613038816111e7565b80156130795750600360008267ffffffffffffffff1667ffffffffffffffff16815260200190815260200160002060040160149054906101000a900460ff16155b80156130ba5750600360008267ffffffffffffffff1667ffffffffffffffff16815260200190815260200160002060040160159054906101000a900460ff16155b15613487578273ffffffffffffffffffffffffffffffffffffffff168673ffffffffffffffffffffffffffffffffffffffff16148061316e5750600360008267ffffffffffffffff1667ffffffffffffffff16815260200190815260200160002060040160009054906101000a900473ffffffffffffffffffffffffffffffffffffffff1673ffffffffffffffffffffffffffffffffffffffff168673ffffffffffffffffffffffffffffffffffffffff16145b1561348657600360008267ffffffffffffffff1667ffffffffffffffff168152602001908152602001600020604051806101400160405290816000820160009054906101000a900467ffffffffffffffff1667ffffffffffffffff1667ffffffffffffffff1681526020016000820160089054906101000a900460801b6fffffffffffffffffffffffffffffffff19166fffffffffffffffffffffffffffffffff191681526020016000820160189054906101000a900467ffffffffffffffff1667ffffffffffffffff1667ffffffffffffffff1681526020016001820160009054906101000a900467ffffffffffffffff1667ffffffffffffffff1667ffffffffffffffff168152602001600282018054806020026020016040519081016040528092919081815260200182805480156132fe57602002820191906000526020600020906000905b82829054906101000a900460801b6fffffffffffffffffffffffffffffffff191681526020019060100190602082600f010492830192600103820291508084116132b75790505b505050505081526020016003820180548060200260200160405190810160405280929190818152602001828054801561337c57602002820191906000526020600020906000905b82829054906101000a900460ff1660ff16815260200190600101906020826000010492830192600103820291508084116133455790505b505050505081526020016004820160009054906101000a900473ffffffffffffffffffffffffffffffffffffffff1673ffffffffffffffffffffffffffffffffffffffff1673ffffffffffffffffffffffffffffffffffffffff1681526020016004820160149054906101000a900460ff161515151581526020016004820160159054906101000a900460ff161515151581526020016004820160169054906101000a900467ffffffffffffffff1667ffffffffffffffff1667ffffffffffffffff16815250508460018361345191906159fe565b67ffffffffffffffff168151811061346c5761346b615a32565b5b6020026020010181905250818061348290615a61565b9250505b5b614174565b60038760ff1614156138f6576134a1816111e7565b1580156134e35750600360008267ffffffffffffffff1667ffffffffffffffff16815260200190815260200160002060040160149054906101000a900460ff16155b80156135245750600360008267ffffffffffffffff1667ffffffffffffffff16815260200190815260200160002060040160159054906101000a900460ff16155b156138f1578273ffffffffffffffffffffffffffffffffffffffff168673ffffffffffffffffffffffffffffffffffffffff1614806135d85750600360008267ffffffffffffffff1667ffffffffffffffff16815260200190815260200160002060040160009054906101000a900473ffffffffffffffffffffffffffffffffffffffff1673ffffffffffffffffffffffffffffffffffffffff168673ffffffffffffffffffffffffffffffffffffffff16145b156138f057600360008267ffffffffffffffff1667ffffffffffffffff168152602001908152602001600020604051806101400160405290816000820160009054906101000a900467ffffffffffffffff1667ffffffffffffffff1667ffffffffffffffff1681526020016000820160089054906101000a900460801b6fffffffffffffffffffffffffffffffff19166fffffffffffffffffffffffffffffffff191681526020016000820160189054906101000a900467ffffffffffffffff1667ffffffffffffffff1667ffffffffffffffff1681526020016001820160009054906101000a900467ffffffffffffffff1667ffffffffffffffff1667ffffffffffffffff1681526020016002820180548060200260200160405190810160405280929190818152602001828054801561376857602002820191906000526020600020906000905b82829054906101000a900460801b6fffffffffffffffffffffffffffffffff191681526020019060100190602082600f010492830192600103820291508084116137215790505b50505050508152602001600382018054806020026020016040519081016040528092919081815260200182805480156137e657602002820191906000526020600020906000905b82829054906101000a900460ff1660ff16815260200190600101906020826000010492830192600103820291508084116137af5790505b505050505081526020016004820160009054906101000a900473ffffffffffffffffffffffffffffffffffffffff1673ffffffffffffffffffffffffffffffffffffffff1673ffffffffffffffffffffffffffffffffffffffff1681526020016004820160149054906101000a900460ff161515151581526020016004820160159054906101000a900460ff161515151581526020016004820160169054906101000a900467ffffffffffffffff1667ffffffffffffffff1667ffffffffffffffff1681525050846001836138bb91906159fe565b67ffffffffffffffff16815181106138d6576138d5615a32565b5b602002602001018190525081806138ec90615a61565b9250505b5b614173565b60048760ff161415613d5f5761390b816111e7565b15801561394d5750600360008267ffffffffffffffff1667ffffffffffffffff16815260200190815260200160002060040160149054906101000a900460ff16155b801561398d5750600360008267ffffffffffffffff1667ffffffffffffffff16815260200190815260200160002060040160159054906101000a900460ff165b15613d5a578273ffffffffffffffffffffffffffffffffffffffff168673ffffffffffffffffffffffffffffffffffffffff161480613a415750600360008267ffffffffffffffff1667ffffffffffffffff16815260200190815260200160002060040160009054906101000a900473ffffffffffffffffffffffffffffffffffffffff1673ffffffffffffffffffffffffffffffffffffffff168673ffffffffffffffffffffffffffffffffffffffff16145b15613d5957600360008267ffffffffffffffff1667ffffffffffffffff168152602001908152602001600020604051806101400160405290816000820160009054906101000a900467ffffffffffffffff1667ffffffffffffffff1667ffffffffffffffff1681526020016000820160089054906101000a900460801b6fffffffffffffffffffffffffffffffff19166fffffffffffffffffffffffffffffffff191681526020016000820160189054906101000a900467ffffffffffffffff1667ffffffffffffffff1667ffffffffffffffff1681526020016001820160009054906101000a900467ffffffffffffffff1667ffffffffffffffff1667ffffffffffffffff16815260200160028201805480602002602001604051908101604052809291908181526020018280548015613bd157602002820191906000526020600020906000905b82829054906101000a900460801b6fffffffffffffffffffffffffffffffff191681526020019060100190602082600f01049283019260010382029150808411613b8a5790505b5050505050815260200160038201805480602002602001604051908101604052809291908181526020018280548015613c4f57602002820191906000526020600020906000905b82829054906101000a900460ff1660ff1681526020019060010190602082600001049283019260010382029150808411613c185790505b505050505081526020016004820160009054906101000a900473ffffffffffffffffffffffffffffffffffffffff1673ffffffffffffffffffffffffffffffffffffffff1673ffffffffffffffffffffffffffffffffffffffff1681526020016004820160149054906101000a900460ff161515151581526020016004820160159054906101000a900460ff161515151581526020016004820160169054906101000a900467ffffffffffffffff1667ffffffffffffffff1667ffffffffffffffff168152505084600183613d2491906159fe565b67ffffffffffffffff1681518110613d3f57613d3e615a32565b5b60200260200101819052508180613d5590615a61565b9250505b5b614172565b60058760ff16141561417157600360008267ffffffffffffffff1667ffffffffffffffff16815260200190815260200160002060040160149054906101000a900460ff1615614170578273ffffffffffffffffffffffffffffffffffffffff168673ffffffffffffffffffffffffffffffffffffffff161480613e575750600360008267ffffffffffffffff1667ffffffffffffffff16815260200190815260200160002060040160009054906101000a900473ffffffffffffffffffffffffffffffffffffffff1673ffffffffffffffffffffffffffffffffffffffff168673ffffffffffffffffffffffffffffffffffffffff16145b1561416f57600360008267ffffffffffffffff1667ffffffffffffffff168152602001908152602001600020604051806101400160405290816000820160009054906101000a900467ffffffffffffffff1667ffffffffffffffff1667ffffffffffffffff1681526020016000820160089054906101000a900460801b6fffffffffffffffffffffffffffffffff19166fffffffffffffffffffffffffffffffff191681526020016000820160189054906101000a900467ffffffffffffffff1667ffffffffffffffff1667ffffffffffffffff1681526020016001820160009054906101000a900467ffffffffffffffff1667ffffffffffffffff1667ffffffffffffffff16815260200160028201805480602002602001604051908101604052809291908181526020018280548015613fe757602002820191906000526020600020906000905b82829054906101000a900460801b6fffffffffffffffffffffffffffffffff191681526020019060100190602082600f01049283019260010382029150808411613fa05790505b505050505081526020016003820180548060200260200160405190810160405280929190818152602001828054801561406557602002820191906000526020600020906000905b82829054906101000a900460ff1660ff168152602001906001019060208260000104928301926001038202915080841161402e5790505b505050505081526020016004820160009054906101000a900473ffffffffffffffffffffffffffffffffffffffff1673ffffffffffffffffffffffffffffffffffffffff1673ffffffffffffffffffffffffffffffffffffffff1681526020016004820160149054906101000a900460ff161515151581526020016004820160159054906101000a900460ff161515151581526020016004820160169054906101000a900467ffffffffffffffff1667ffffffffffffffff1667ffffffffffffffff16815250508460018361413a91906159fe565b67ffffffffffffffff168151811061415557614154615a32565b5b6020026020010181905250818061416b90615a61565b9250505b5b5b5b5b5b5b808061418090615a61565b915050612c1a565b5060008167ffffffffffffffff1667ffffffffffffffff8111156141af576141ae6150ad565b5b6040519080825280602002602001820160405280156141e857816020015b6141d561454b565b8152602001906001900390816141cd5790505b509050839050606093508094505050505092915050565b6000600160003373ffffffffffffffffffffffffffffffffffffffff1673ffffffffffffffffffffffffffffffffffffffff16815260200190815260200160002060000160009054906101000a900467ffffffffffffffff1667ffffffffffffffff16146142a2576040517f08c379a000000000000000000000000000000000000000000000000000000000815260040161429990615e91565b60405180910390fd5b6040518060a001604052808567ffffffffffffffff1681526020013373ffffffffffffffffffffffffffffffffffffffff168152602001846fffffffffffffffffffffffffffffffff19168152602001836fffffffffffffffffffffffffffffffff19168152602001826fffffffffffffffffffffffffffffffff1916815250600160003373ffffffffffffffffffffffffffffffffffffffff1673ffffffffffffffffffffffffffffffffffffffff16815260200190815260200160002060008201518160000160006101000a81548167ffffffffffffffff021916908367ffffffffffffffff16021790555060208201518160000160086101000a81548173ffffffffffffffffffffffffffffffffffffffff021916908373ffffffffffffffffffffffffffffffffffffffff16021790555060408201518160010160006101000a8154816fffffffffffffffffffffffffffffffff021916908360801c021790555060608201518160010160106101000a8154816fffffffffffffffffffffffffffffffff021916908360801c021790555060808201518160020160006101000a8154816fffffffffffffffffffffffffffffffff021916908360801c021790555090505050505050565b60046020528060005260406000206000915090508060000160009054906101000a900467ffffffffffffffff16908060000160089054906101000a900467ffffffffffffffff16908060000160109054906101000a900460801b908060010160009054906101000a900460801b908060010160109054906101000a900463ffffffff16908060010160149054906101000a900467ffffffffffffffff16908060030160009054906101000a900473ffffffffffffffffffffffffffffffffffffffff16908060030160149054906101000a900460ff16905088565b604051806101400160405280600067ffffffffffffffff16815260200160006fffffffffffffffffffffffffffffffff19168152602001600067ffffffffffffffff168152602001600067ffffffffffffffff1681526020016060815260200160608152602001600073ffffffffffffffffffffffffffffffffffffffff168152602001600015158152602001600015158152602001600067ffffffffffffffff1681525090565b604051806101200160405280600067ffffffffffffffff168152602001600067ffffffffffffffff16815260200160006fffffffffffffffffffffffffffffffff1916815260200160006fffffffffffffffffffffffffffffffff19168152602001600063ffffffff168152602001600067ffffffffffffffff16815260200160608152602001600073ffffffffffffffffffffffffffffffffffffffff1681526020016000151581525090565b828054828255906000526020600020906001016002900481019282156147555791602002820160005b8382111561471757835183826101000a8154816fffffffffffffffffffffffffffffffff021916908360801c02179055509260200192601001602081600f010492830192600103026146ca565b80156147535782816101000a8154906fffffffffffffffffffffffffffffffff0219169055601001602081600f01049283019260010302614717565b505b509050614762919061480d565b5090565b82805482825590600052602060002090601f016020900481019282156147fc5791602002820160005b838211156147cd57835183826101000a81548160ff021916908360ff160217905550926020019260010160208160000104928301926001030261478f565b80156147fa5782816101000a81549060ff02191690556001016020816000010492830192600103026147cd565b505b509050614809919061480d565b5090565b5b8082111561482657600081600090555060010161480e565b5090565b6000604051905090565b600080fd5b600080fd5b600073ffffffffffffffffffffffffffffffffffffffff82169050919050565b60006148698261483e565b9050919050565b6148798161485e565b811461488457600080fd5b50565b60008135905061489681614870565b92915050565b6000602082840312156148b2576148b1614834565b5b60006148c084828501614887565b91505092915050565b600067ffffffffffffffff82169050919050565b6148e6816148c9565b82525050565b6148f58161485e565b82525050565b60007fffffffffffffffffffffffffffffffff0000000000000000000000000000000082169050919050565b614930816148fb565b82525050565b600060a08201905061494b60008301886148dd565b61495860208301876148ec565b6149656040830186614927565b6149726060830185614927565b61497f6080830184614927565b9695505050505050565b614992816148c9565b811461499d57600080fd5b50565b6000813590506149af81614989565b92915050565b6000602082840312156149cb576149ca614834565b5b60006149d9848285016149a0565b91505092915050565b6149eb816148c9565b82525050565b6149fa816148fb565b82525050565b600081519050919050565b600082825260208201905092915050565b6000819050602082019050919050565b6000614a3883836149f1565b60208301905092915050565b6000602082019050919050565b6000614a5c82614a00565b614a668185614a0b565b9350614a7183614a1c565b8060005b83811015614aa2578151614a898882614a2c565b9750614a9483614a44565b925050600181019050614a75565b5085935050505092915050565b600081519050919050565b600082825260208201905092915050565b6000819050602082019050919050565b600060ff82169050919050565b614af181614adb565b82525050565b6000614b038383614ae8565b60208301905092915050565b6000602082019050919050565b6000614b2782614aaf565b614b318185614aba565b9350614b3c83614acb565b8060005b83811015614b6d578151614b548882614af7565b9750614b5f83614b0f565b925050600181019050614b40565b5085935050505092915050565b614b838161485e565b82525050565b60008115159050919050565b614b9e81614b89565b82525050565b600061014083016000830151614bbd60008601826149e2565b506020830151614bd060208601826149f1565b506040830151614be360408601826149e2565b506060830151614bf660608601826149e2565b5060808301518482036080860152614c0e8282614a51565b91505060a083015184820360a0860152614c288282614b1c565b91505060c0830151614c3d60c0860182614b7a565b5060e0830151614c5060e0860182614b95565b50610100830151614c65610100860182614b95565b50610120830151614c7a6101208601826149e2565b508091505092915050565b60006020820190508181036000830152614c9f8184614ba4565b905092915050565b614cb0816148fb565b8114614cbb57600080fd5b50565b600081359050614ccd81614ca7565b92915050565b600060208284031215614ce957614ce8614834565b5b6000614cf784828501614cbe565b91505092915050565b614d0981614b89565b82525050565b6000602082019050614d246000830184614d00565b92915050565b60008060408385031215614d4157614d40614834565b5b6000614d4f85828601614887565b9250506020614d60858286016149a0565b9150509250929050565b600081519050919050565b600082825260208201905092915050565b6000819050602082019050919050565b600063ffffffff82169050919050565b614daf81614d96565b82525050565b600061012083016000830151614dce60008601826149e2565b506020830151614de160208601826149e2565b506040830151614df460408601826149f1565b506060830151614e0760608601826149f1565b506080830151614e1a6080860182614da6565b5060a0830151614e2d60a08601826149e2565b5060c083015184820360c0860152614e458282614a51565b91505060e0830151614e5a60e0860182614b7a565b50610100830151614e6f610100860182614b95565b508091505092915050565b6000614e868383614db5565b905092915050565b6000602082019050919050565b6000614ea682614d6a565b614eb08185614d75565b935083602082028501614ec285614d86565b8060005b85811015614efe5784840389528151614edf8582614e7a565b9450614eea83614e8e565b925060208a01995050600181019050614ec6565b50829750879550505050505092915050565b60006020820190508181036000830152614f2a8184614e9b565b905092915050565b600061012083016000830151614f4b60008601826149e2565b506020830151614f5e60208601826149e2565b506040830151614f7160408601826149f1565b506060830151614f8460608601826149f1565b506080830151614f976080860182614da6565b5060a0830151614faa60a08601826149e2565b5060c083015184820360c0860152614fc28282614a51565b91505060e0830151614fd760e0860182614b7a565b50610100830151614fec610100860182614b95565b508091505092915050565b600060208201905081810360008301526150118184614f32565b905092915050565b60006101008201905061502f600083018b6148dd565b61503c602083018a614927565b61504960408301896148dd565b61505660608301886148dd565b61506360808301876148ec565b61507060a0830186614d00565b61507d60c0830185614d00565b61508a60e08301846148dd565b9998505050505050505050565b600080fd5b6000601f19601f8301169050919050565b7f4e487b7100000000000000000000000000000000000000000000000000000000600052604160045260246000fd5b6150e58261509c565b810181811067ffffffffffffffff82111715615104576151036150ad565b5b80604052505050565b600061511761482a565b905061512382826150dc565b919050565b600067ffffffffffffffff821115615143576151426150ad565b5b602082029050602081019050919050565b600080fd5b600061516c61516784615128565b61510d565b9050808382526020820190506020840283018581111561518f5761518e615154565b5b835b818110156151b857806151a48882614cbe565b845260208401935050602081019050615191565b5050509392505050565b600082601f8301126151d7576151d6615097565b5b81356151e7848260208601615159565b91505092915050565b6000806040838503121561520757615206614834565b5b600083013567ffffffffffffffff81111561522557615224614839565b5b615231858286016151c2565b925050602061524285828601614cbe565b9150509250929050565b6000806040838503121561526357615262614834565b5b6000615271858286016149a0565b925050602061528285828601614cbe565b9150509250929050565b61529581614d96565b81146152a057600080fd5b50565b6000813590506152b28161528c565b92915050565b600080600080600080600060e0888a0312156152d7576152d6614834565b5b60006152e58a828b016149a0565b97505060206152f68a828b01614cbe565b96505060406153078a828b01614cbe565b95505060606153188a828b016152a3565b94505060806153298a828b016149a0565b93505060a088013567ffffffffffffffff81111561534a57615349614839565b5b6153568a828b016151c2565b92505060c06153678a828b01614cbe565b91505092959891949750929550565b60008060006060848603121561538f5761538e614834565b5b600061539d868287016149a0565b93505060206153ae868287016149a0565b92505060406153bf86828701614cbe565b9150509250925092565b600067ffffffffffffffff8211156153e4576153e36150ad565b5b602082029050602081019050919050565b6153fe81614adb565b811461540957600080fd5b50565b60008135905061541b816153f5565b92915050565b600061543461542f846153c9565b61510d565b9050808382526020820190506020840283018581111561545757615456615154565b5b835b81811015615480578061546c888261540c565b845260208401935050602081019050615459565b5050509392505050565b600082601f83011261549f5761549e615097565b5b81356154af848260208601615421565b91505092915050565b60008060008060008060c087890312156154d5576154d4614834565b5b60006154e389828a01614cbe565b96505060206154f489828a016149a0565b955050604061550589828a016149a0565b945050606087013567ffffffffffffffff81111561552657615525614839565b5b61553289828a016151c2565b935050608087013567ffffffffffffffff81111561555357615552614839565b5b61555f89828a0161548a565b92505060a061557089828a01614cbe565b9150509295509295509295565b600080600080600060a0868803121561559957615598614834565b5b60006155a7888289016149a0565b95505060206155b888828901614cbe565b94505060406155c988828901614cbe565b93505060606155da88828901614cbe565b92505060806155eb88828901614cbe565b9150509295509295909350565b600060c08201905061560d60008301896148dd565b61561a60208301886148ec565b6156276040830187614927565b6156346060830186614927565b6156416080830185614927565b61564e60a0830184614927565b979650505050505050565b600080604083850312156156705761566f614834565b5b600061567e8582860161540c565b925050602061568f85828601614887565b9150509250929050565b600081519050919050565b600082825260208201905092915050565b6000819050602082019050919050565b6000610140830160008301516156de60008601826149e2565b5060208301516156f160208601826149f1565b50604083015161570460408601826149e2565b50606083015161571760608601826149e2565b506080830151848203608086015261572f8282614a51565b91505060a083015184820360a08601526157498282614b1c565b91505060c083015161575e60c0860182614b7a565b5060e083015161577160e0860182614b95565b50610100830151615786610100860182614b95565b5061012083015161579b6101208601826149e2565b508091505092915050565b60006157b283836156c5565b905092915050565b6000602082019050919050565b60006157d282615699565b6157dc81856156a4565b9350836020820285016157ee856156b5565b8060005b8581101561582a578484038952815161580b85826157a6565b9450615816836157ba565b925060208a019950506001810190506157f2565b50829750879550505050505092915050565b6000602082019050818103600083015261585681846157c7565b905092915050565b6000806000806080858703121561587857615877614834565b5b6000615886878288016149a0565b945050602061589787828801614cbe565b93505060406158a887828801614cbe565b92505060606158b987828801614cbe565b91505092959194509250565b6158ce81614d96565b82525050565b6000610100820190506158ea600083018b6148dd565b6158f7602083018a6148dd565b6159046040830189614927565b6159116060830188614927565b61591e60808301876158c5565b61592b60a08301866148dd565b61593860c08301856148ec565b61594560e0830184614d00565b9998505050505050505050565b600082825260208201905092915050565b7f696e76616c696420696400000000000000000000000000000000000000000000600082015250565b6000615999600a83615952565b91506159a482615963565b602082019050919050565b600060208201905081810360008301526159c88161598c565b9050919050565b7f4e487b7100000000000000000000000000000000000000000000000000000000600052601160045260246000fd5b6000615a09826148c9565b9150615a14836148c9565b925082821015615a2757615a266159cf565b5b828203905092915050565b7f4e487b7100000000000000000000000000000000000000000000000000000000600052603260045260246000fd5b6000615a6c826148c9565b915067ffffffffffffffff821415615a8757615a866159cf565b5b600182019050919050565b6000819050919050565b6000615aa782615a92565b91507fffffffffffffffffffffffffffffffffffffffffffffffffffffffffffffffff821415615ada57615ad96159cf565b5b600182019050919050565b7f63616e6e6f742063616e63656c00000000000000000000000000000000000000600082015250565b6000615b1b600d83615952565b9150615b2682615ae5565b602082019050919050565b60006020820190508181036000830152615b4a81615b0e565b9050919050565b7f70617373776f7264206e6f7420636f7272656374000000000000000000000000600082015250565b6000615b87601483615952565b9150615b9282615b51565b602082019050919050565b60006020820190508181036000830152615bb681615b7a565b9050919050565b7f796f7520617265206e6f74206f776e6572000000000000000000000000000000600082015250565b6000615bf3601183615952565b9150615bfe82615bbd565b602082019050919050565b60006020820190508181036000830152615c2281615be6565b9050919050565b7f62696e64696e67206e6f74206163746976650000000000000000000000000000600082015250565b6000615c5f601283615952565b9150615c6a82615c29565b602082019050919050565b60006020820190508181036000830152615c8e81615c52565b9050919050565b7f696e76616c69642064657461696c730000000000000000000000000000000000600082015250565b6000615ccb600f83615952565b9150615cd682615c95565b602082019050919050565b60006020820190508181036000830152615cfa81615cbe565b9050919050565b7f696e76616c696420696e2064657461696c730000000000000000000000000000600082015250565b6000615d37601283615952565b9150615d4282615d01565b602082019050919050565b60006020820190508181036000830152615d6681615d2a565b9050919050565b7f706f696e7473206e6f7420657175616c2064657461696c730000000000000000600082015250565b6000615da3601883615952565b9150615dae82615d6d565b602082019050919050565b60006020820190508181036000830152615dd281615d96565b9050919050565b7f52657065617465642064657461696c7300000000000000000000000000000000600082015250565b6000615e0f601083615952565b9150615e1a82615dd9565b602082019050919050565b60006020820190508181036000830152615e3e81615e02565b9050919050565b7f616c7265616479207369676e6564000000000000000000000000000000000000600082015250565b6000615e7b600e83615952565b9150615e8682615e45565b602082019050919050565b60006020820190508181036000830152615eaa81615e6e565b9050919050565b6000615ebc82614adb565b915060ff821415615ed057615ecf6159cf565b5b60018201905091905056fea26469706673582212200f276e5d4c0f9e282e1e0852db042a36173806adad5b7db3e58ded5facb1c2d464736f6c634300080c0033",
  "immutableReferences": {},
  "source": "// SPDX-License-Identifier: GPL-3.0\npragma abicoder v2;\n\n// bytes8 = 8 char , bytes16 = 16 char , bytes32 = 32 char ...ect\n// uint8 = 0-255 ,\n// to test new commit\n// new\n\n// name\n// phoneNo\n// id\n// address\n//\ncontract BindingContract {\n\n    struct Company {\n        uint64 companyId;\n        address companyAddress;\n        bytes16 name;\n        bytes16 phoneNo;\n        bytes16 specification;\n        bytes16 password;\n    }\n\n    struct Municipality {\n        uint64 municipalityId;\n        address municipalityAddress;\n        bytes16 name;\n        bytes16 phoneNo;\n        bytes16 password;\n    }\n\n    struct BindingData {//\n        uint64 bindingId;\n        bytes16 name;\n        uint64 startDate;\n        uint64 endDate;\n        bytes16[] details;\n        uint8[] points;\n        address municipalityAddress;\n        bool isCanceled;\n        bool isOpened;\n        uint64 _winnerId;\n    }\n\n    struct RequestBinding {\n        uint64 requestId;\n        uint64 companyId;\n        bytes16 fullName;\n        bytes16 phoneNo;\n        uint32 price;\n        uint64 bindingId;\n        bytes16 [] details;\n        address companyAddress;\n        bool isWinner;\n    }\n\n    //-*-*-*-*--*-*-*-*--*-*-*-*--*-*-*-*--*-*-*-*--*-*-*-*--*-*-*-*--*-*-*-*--*-*-*-*--*-*-*-*--*-*-*-*-\n\n    mapping(address => Company) public company;\n    mapping(address => Municipality) public municipality;\n\n    function signUpCompany(uint64 _companyId, bytes16 _name, bytes16 _phoneNo, bytes16 _specification, bytes16 _password) public payable {\n        require(company[msg.sender].companyId == 0, \"already signed\");\n\n        company[msg.sender] = Company(_companyId, msg.sender, _name, _phoneNo, _specification, _password);\n\n    }\n\n    function signUpMunicipality(uint64 _municipalityId,\n        bytes16 _name,\n        bytes16 _phoneNo, bytes16 _password) public payable {\n        require(municipality[msg.sender].municipalityId == 0, \"already signed\");\n        municipality[msg.sender] = Municipality(_municipalityId, msg.sender, _name, _phoneNo, _password);\n\n    }\n\n    function loginCompany(bytes16 password) public view returns (bool){\n        if (company[msg.sender].companyId != 0)\n        {\n            if (company[msg.sender].password == password) {\n                return true;\n            }\n\n        }\n        return false;\n    }\n\n    function loginMunicipality(bytes16 password) public view returns (bool){\n        if (municipality[msg.sender].municipalityId != 0)\n        {\n            if (municipality[msg.sender].password == password) {\n                return true;\n            }\n\n        }\n        return false;\n    }\n\n\n    uint64 bindingContractCount;\n    uint64 bindingRequestsCount;\n\n    constructor() {\n        bindingContractCount = 0;\n        bindingRequestsCount = 0;\n\n    }\n\n    mapping(uint64 => BindingData) public bindingContracts;\n\n\n    function createBindingContract(\n        bytes16 _name,\n        uint64 _startDate,\n        uint64 _endDate,\n        bytes16[] memory _details,\n        uint8[] memory _points,\n        bytes16 password\n    ) public payable {\n        require(password == municipality[msg.sender].password, \"password not correct\");\n        require(_details.length == _points.length, \"points not equal details\");\n        for (uint256 i = 0; i < _details.length; i++) {\n            require(!isRepeatedItem(_details, _details[i]), \"Repeated details\");\n        }\n        bindingContractCount++;\n        bindingContracts[bindingContractCount] = BindingData(\n            bindingContractCount,\n            _name,\n            _startDate,\n            _endDate,\n            _details,\n            _points,\n            msg.sender\n        , false, false, 0);\n\n    }\n\n\n    function getBindingById(uint64 bindingId)\n    public\n    view\n    returns (BindingData memory)\n    {\n        require(bindingId <= bindingContractCount, \"invalid id\");\n        return bindingContracts[bindingId];\n    }\n\n\n    function getBindings(uint8 _bidType, address _address) view external returns (BindingData[] memory) {\n        BindingData  [] memory _bindings = new BindingData[](bindingContractCount);\n        address _deadAddress;\n        uint64 counter = 0;\n        for (uint64 i = 1; i <= bindingContractCount; i++) {\n            if (_bidType == 1) {// get all binding\n                if (_address == _deadAddress || _address == bindingContracts[i].municipalityAddress) {\n                    _bindings[i - 1] = bindingContracts[i];\n                    counter++;\n                }\n            } else if (_bidType == 2) {// get active binding\n                if (isActive(i) && !bindingContracts[i].isCanceled && !bindingContracts[i].isOpened)\n                    if (_address == _deadAddress || _address == bindingContracts[i].municipalityAddress) {\n                        _bindings[i - 1] = bindingContracts[i];\n                        counter++;\n                    }\n            } else if (_bidType == 3) {// get ended binding\n                if (!isActive(i) && !bindingContracts[i].isCanceled && !bindingContracts[i].isOpened)\n                    if (_address == _deadAddress || _address == bindingContracts[i].municipalityAddress) {\n                        _bindings[i - 1] = bindingContracts[i];\n                        counter++;\n                    }\n            } else if (_bidType == 4) {// get opened binding\n\n                if (!isActive(i) && !bindingContracts[i].isCanceled && bindingContracts[i].isOpened)\n                    if (_address == _deadAddress || _address == bindingContracts[i].municipalityAddress) {\n                        _bindings[i - 1] = bindingContracts[i];\n                        counter++;\n                    }\n            } else if (_bidType == 5) {// get all binding\n                if (bindingContracts[i].isCanceled)\n                    if (_address == _deadAddress || _address == bindingContracts[i].municipalityAddress) {\n                        _bindings[i - 1] = bindingContracts[i];\n                        counter++;}\n            }\n        }\n        BindingData  [] memory _bindings1 = new BindingData[](counter);\n        _bindings1 = _bindings;\n        delete _bindings;\n        return _bindings1;\n\n    }\n\n\n    function openBinding(uint64 _bindingId, uint64 _requestId, bytes16 password) public payable {\n        require(_bindingId <= bindingContractCount && _requestId <= bindingRequestsCount &&\n            bindingRequests[_requestId].bindingId == _bindingId, \"invalid id\");\n\n\n    require(password == municipality[msg.sender].password, \"password not correct\");\n        require(msg.sender == bindingContracts[_bindingId].municipalityAddress, \"you are not owner\");\n        bindingContracts[_bindingId].isOpened = true;\n        bindingContracts[_bindingId]._winnerId = _requestId;\n        bindingRequests[_requestId].isWinner = true;\n\n    }\n\n\n    function cancelBinding(uint64 _bindingId, bytes16 password) public payable returns (bool){require(_bindingId <= bindingContractCount && isActive(_bindingId) && !bindingContracts[_bindingId].isCanceled\n    && !bindingContracts[_bindingId].isOpened, \"cannot cancel\");\n\n\n        require(password == municipality[msg.sender].password, \"password not correct\");\n        require(msg.sender == bindingContracts[_bindingId].municipalityAddress, \"you are not owner\");\n        bindingContracts[_bindingId].isCanceled = true;\n        return true;\n\n    }\n\n    function isActive(uint64 bindingId) public view returns (bool) {\n        if (bindingId <= bindingContractCount) {\n            if (\n                bindingContracts[bindingId].endDate >= block.timestamp\n                && bindingContracts[bindingId].startDate <= block.timestamp\n            ) {\n                return true;\n            }\n        }\n        return false;\n    }\n    //-*-*-*-*--*-*-*-*--*-*-*-*--*-*-*-*--*-*-*-*--*-*-*-*--*-*-*-*--*-*-*-*--*-*-*-*--*-*-*-*--*-*-*-*--*-*-*-*--*-*-*-*--*-*-*-*-\n\n\n    mapping(uint64 => RequestBinding) public bindingRequests;\n\n    function requestToBinding(\n        uint64 _companyId,\n        bytes16 _fullName,\n        bytes16 _phoneNo,\n        uint32 _price,\n        uint64 _bindingId,\n        bytes16 [] memory _details\n    , bytes16 password\n    ) public payable {\n        require(password == company[msg.sender].password, \"password not correct\");\n\n        require(isActive(_bindingId), \"binding not active\");\n        BindingData memory _bindingData = getBindingById(_bindingId);\n        bytes16 [] memory _bindingDetails = _bindingData.details;\n        require(_details.length <= _bindingDetails.length, \"invalid details\");\n        for (uint256 i = 0; i < _details.length; i++) {\n            require(!isRepeatedItem(_details, _details[i]) && searchInArray(_bindingDetails, _details[i]), \"invalid in details\");\n        }\n\n        bindingRequestsCount++;\n        bindingRequests[bindingRequestsCount] = RequestBinding(\n            bindingRequestsCount,\n            _companyId,\n            _fullName,\n            _phoneNo,\n            _price,\n            _bindingId,\n            _details,\n            msg.sender,\n            false\n        );\n    }\n\n    function getBindingRequestByRequestId(uint64 _requestId)\n    public\n    view\n    returns (RequestBinding memory)\n    {\n        require(_requestId <= bindingRequestsCount, \"invalid id\");\n        return bindingRequests[_requestId];\n    }\n\n    function getContractsRequest(address _companyAddress, uint64 _bindingId) public view\n    returns (RequestBinding [] memory)\n    {\n        RequestBinding [] memory _contractRequests = new RequestBinding[](bindingRequestsCount);\n        uint64 counter = 0;\n        address _deadAddress;\n        for (uint64 i = 1; i <= bindingRequestsCount; i++) {\n            if (_companyAddress != _deadAddress && _bindingId == 0 && bindingRequests[i].companyAddress == _companyAddress) {\n                _contractRequests[i - 1] = bindingRequests[i];\n                counter++;\n            } else if (_companyAddress == _deadAddress && _bindingId != 0 && bindingRequests[i].bindingId == _bindingId) {\n                _contractRequests[i - 1] = bindingRequests[i];\n                counter++;\n            }\n        }\n        RequestBinding [] memory _contractRequests1 = new RequestBinding[](counter);\n        _contractRequests1 = _contractRequests;\n        delete _contractRequests;\n        return _contractRequests1;\n    }\n\n\n    function searchInArray(bytes16 [] memory array, bytes16 variable) public pure returns (bool){\n        for (uint i = 0; i < array.length; i++) {\n            if (array[i] == variable)\n                return true;\n        }\n        return false;\n    }\n\n    function isRepeatedItem(bytes16 [] memory array, bytes16 variable) public pure returns (bool){\n        uint8 count = 0;\n        for (uint i = 0; i < array.length; i++) {\n            if (array[i] == variable)\n                count++;\n            if (count >= 2)\n                break;\n        }\n        if (count == 1)\n            return false;\n        return true;\n    }\n\n}\n",
  "sourcePath": "/Users/ahmed/Desktop/solidity/binding_blockchain/contracts/BindingContract.sol",
  "compiler": {
    "name": "solc",
    "version": "0.8.12+commit.f00d7308.Emscripten.clang"
  },
  "schemaVersion": "3.4.7",
  "updatedAt": "2022-05-27T05:03:28.789Z",
  "networkType": "ethereum",
  "devdoc": {
    "kind": "dev",
    "methods": {},
    "version": 1
  },
  "userdoc": {
    "kind": "user",
    "methods": {},
    "version": 1
  }
}